{
  "_format": "hh-sol-artifact-1",
  "contractName": "OriginNFT",
  "sourceName": "contracts/OriginNFT.sol",
  "abi": [
    {
      "inputs": [],
      "stateMutability": "nonpayable",
      "type": "constructor"
    },
    {
      "anonymous": false,
      "inputs": [
        {
          "indexed": true,
          "internalType": "address",
          "name": "owner",
          "type": "address"
        },
        {
          "indexed": true,
          "internalType": "address",
          "name": "approved",
          "type": "address"
        },
        {
          "indexed": true,
          "internalType": "uint256",
          "name": "tokenId",
          "type": "uint256"
        }
      ],
      "name": "Approval",
      "type": "event"
    },
    {
      "anonymous": false,
      "inputs": [
        {
          "indexed": true,
          "internalType": "address",
          "name": "owner",
          "type": "address"
        },
        {
          "indexed": true,
          "internalType": "address",
          "name": "operator",
          "type": "address"
        },
        {
          "indexed": false,
          "internalType": "bool",
          "name": "approved",
          "type": "bool"
        }
      ],
      "name": "ApprovalForAll",
      "type": "event"
    },
    {
      "anonymous": false,
      "inputs": [
        {
          "indexed": true,
          "internalType": "address",
          "name": "from",
          "type": "address"
        },
        {
          "indexed": true,
          "internalType": "address",
          "name": "to",
          "type": "address"
        },
        {
          "indexed": true,
          "internalType": "uint256",
          "name": "tokenId",
          "type": "uint256"
        }
      ],
      "name": "Transfer",
      "type": "event"
    },
    {
      "inputs": [
        {
          "internalType": "address",
          "name": "to",
          "type": "address"
        },
        {
          "internalType": "uint256",
          "name": "tokenId",
          "type": "uint256"
        }
      ],
      "name": "approve",
      "outputs": [],
      "stateMutability": "nonpayable",
      "type": "function"
    },
    {
      "inputs": [
        {
          "internalType": "address",
          "name": "owner",
          "type": "address"
        }
      ],
      "name": "balanceOf",
      "outputs": [
        {
          "internalType": "uint256",
          "name": "",
          "type": "uint256"
        }
      ],
      "stateMutability": "view",
      "type": "function"
    },
    {
      "inputs": [],
      "name": "burn",
      "outputs": [
        {
          "internalType": "uint256",
          "name": "",
          "type": "uint256"
        }
      ],
      "stateMutability": "nonpayable",
      "type": "function"
    },
    {
      "inputs": [
        {
          "internalType": "uint256",
          "name": "tokenId",
          "type": "uint256"
        }
      ],
      "name": "getApproved",
      "outputs": [
        {
          "internalType": "address",
          "name": "",
          "type": "address"
        }
      ],
      "stateMutability": "view",
      "type": "function"
    },
    {
      "inputs": [
        {
          "internalType": "address",
          "name": "owner",
          "type": "address"
        },
        {
          "internalType": "address",
          "name": "operator",
          "type": "address"
        }
      ],
      "name": "isApprovedForAll",
      "outputs": [
        {
          "internalType": "bool",
          "name": "",
          "type": "bool"
        }
      ],
      "stateMutability": "view",
      "type": "function"
    },
    {
      "inputs": [],
      "name": "name",
      "outputs": [
        {
          "internalType": "string",
          "name": "",
          "type": "string"
        }
      ],
      "stateMutability": "view",
      "type": "function"
    },
    {
      "inputs": [
        {
          "internalType": "uint256",
          "name": "tokenId",
          "type": "uint256"
        }
      ],
      "name": "ownerOf",
      "outputs": [
        {
          "internalType": "address",
          "name": "",
          "type": "address"
        }
      ],
      "stateMutability": "view",
      "type": "function"
    },
    {
      "inputs": [
        {
          "internalType": "address",
          "name": "from",
          "type": "address"
        },
        {
          "internalType": "address",
          "name": "to",
          "type": "address"
        },
        {
          "internalType": "uint256",
          "name": "tokenId",
          "type": "uint256"
        }
      ],
      "name": "safeTransferFrom",
      "outputs": [],
      "stateMutability": "nonpayable",
      "type": "function"
    },
    {
      "inputs": [
        {
          "internalType": "address",
          "name": "from",
          "type": "address"
        },
        {
          "internalType": "address",
          "name": "to",
          "type": "address"
        },
        {
          "internalType": "uint256",
          "name": "tokenId",
          "type": "uint256"
        },
        {
          "internalType": "bytes",
          "name": "data",
          "type": "bytes"
        }
      ],
      "name": "safeTransferFrom",
      "outputs": [],
      "stateMutability": "nonpayable",
      "type": "function"
    },
    {
      "inputs": [
        {
          "internalType": "address",
          "name": "operator",
          "type": "address"
        },
        {
          "internalType": "bool",
          "name": "approved",
          "type": "bool"
        }
      ],
      "name": "setApprovalForAll",
      "outputs": [],
      "stateMutability": "nonpayable",
      "type": "function"
    },
    {
      "inputs": [
        {
          "internalType": "bytes4",
          "name": "interfaceId",
          "type": "bytes4"
        }
      ],
      "name": "supportsInterface",
      "outputs": [
        {
          "internalType": "bool",
          "name": "",
          "type": "bool"
        }
      ],
      "stateMutability": "view",
      "type": "function"
    },
    {
      "inputs": [],
      "name": "symbol",
      "outputs": [
        {
          "internalType": "string",
          "name": "",
          "type": "string"
        }
      ],
      "stateMutability": "view",
      "type": "function"
    },
    {
      "inputs": [
        {
          "internalType": "uint256",
          "name": "index",
          "type": "uint256"
        }
      ],
      "name": "tokenByIndex",
      "outputs": [
        {
          "internalType": "uint256",
          "name": "",
          "type": "uint256"
        }
      ],
      "stateMutability": "view",
      "type": "function"
    },
    {
      "inputs": [
        {
          "internalType": "address",
          "name": "owner",
          "type": "address"
        },
        {
          "internalType": "uint256",
          "name": "index",
          "type": "uint256"
        }
      ],
      "name": "tokenOfOwnerByIndex",
      "outputs": [
        {
          "internalType": "uint256",
          "name": "",
          "type": "uint256"
        }
      ],
      "stateMutability": "view",
      "type": "function"
    },
    {
      "inputs": [
        {
          "internalType": "uint256",
          "name": "tokenId",
          "type": "uint256"
        }
      ],
      "name": "tokenURI",
      "outputs": [
        {
          "internalType": "string",
          "name": "",
          "type": "string"
        }
      ],
      "stateMutability": "view",
      "type": "function"
    },
    {
      "inputs": [],
      "name": "totalSupply",
      "outputs": [
        {
          "internalType": "uint256",
          "name": "",
          "type": "uint256"
        }
      ],
      "stateMutability": "view",
      "type": "function"
    },
    {
      "inputs": [
        {
          "internalType": "address",
          "name": "from",
          "type": "address"
        },
        {
          "internalType": "address",
          "name": "to",
          "type": "address"
        },
        {
          "internalType": "uint256",
          "name": "tokenId",
          "type": "uint256"
        }
      ],
      "name": "transferFrom",
      "outputs": [],
      "stateMutability": "nonpayable",
      "type": "function"
    }
  ],
  "bytecode": "0x60e0604052603660808181529062001d6c60a03980516200002991600a9160209091019062000546565b503480156200003757600080fd5b50604080518082018252601481527f426f7265642041706520596163687420436c75620000000000000000000000006020808301918252835180850190945260048452634241594360e01b908401528151919291620000999160009162000546565b508051620000af90600190602084019062000546565b505050620000c5336000620000cb60201b60201c565b6200069f565b6001600160a01b038216620001275760405162461bcd60e51b815260206004820181905260248201527f4552433732313a206d696e7420746f20746865207a65726f206164647265737360448201526064015b60405180910390fd5b6000818152600260205260409020546001600160a01b0316156200018e5760405162461bcd60e51b815260206004820152601c60248201527f4552433732313a20746f6b656e20616c7265616479206d696e7465640000000060448201526064016200011e565b6200019c6000838362000225565b6001600160a01b0382166000908152600360205260408120805460019290620001c790849062000602565b909155505060008181526002602052604080822080546001600160a01b0319166001600160a01b03861690811790915590518392907fddf252ad1be2c89b69c2b068fc378daa952ba7f163c4a11628f55a4df523b3ef908290a45050565b6200023d838383620002db60201b6200048f1760201c565b6001600160a01b0383166200029b576200029581600880546000838152600960205260408120829055600182018355919091527ff3f7a9fe364faab93b216da50a3214154f22a0a2b415b23a84c8169e8b636ee30155565b620002c1565b816001600160a01b0316836001600160a01b031614620002c157620002c1838262000306565b6001600160a01b038216620002e057620002db81620003b3565b505050565b826001600160a01b0316826001600160a01b031614620002db57620002db82826200046d565b600060016200032084620004be60201b6200067b1760201c565b6200032c91906200061d565b60008381526007602052604090205490915080821462000380576001600160a01b03841660009081526006602090815260408083208584528252808320548484528184208190558352600790915290208190555b5060009182526007602090815260408084208490556001600160a01b039094168352600681528383209183525290812055565b600854600090620003c7906001906200061d565b60008381526009602052604081205460088054939450909284908110620003f257620003f262000637565b90600052602060002001549050806008838154811062000416576200041662000637565b60009182526020808320909101929092558281526009909152604080822084905585825281205560088054806200045157620004516200064d565b6001900381819060005260206000200160009055905550505050565b60006200048583620004be60201b6200067b1760201c565b6001600160a01b039093166000908152600660209081526040808320868452825280832085905593825260079052919091209190915550565b60006001600160a01b0382166200052a5760405162461bcd60e51b815260206004820152602960248201527f4552433732313a2061646472657373207a65726f206973206e6f7420612076616044820152683634b21037bbb732b960b91b60648201526084016200011e565b506001600160a01b031660009081526003602052604090205490565b828054620005549062000663565b90600052602060002090601f016020900481019282620005785760008555620005c3565b82601f106200059357805160ff1916838001178555620005c3565b82800160010185558215620005c3579182015b82811115620005c3578251825591602001919060010190620005a6565b50620005d1929150620005d5565b5090565b5b80821115620005d15760008155600101620005d6565b634e487b7160e01b600052601160045260246000fd5b60008219821115620006185762000618620005ec565b500190565b600082821015620006325762000632620005ec565b500390565b634e487b7160e01b600052603260045260246000fd5b634e487b7160e01b600052603160045260246000fd5b600181811c908216806200067857607f821691505b6020821081036200069957634e487b7160e01b600052602260045260246000fd5b50919050565b6116bd80620006af6000396000f3fe608060405234801561001057600080fd5b506004361061010b5760003560e01c806344df8e70116100a257806395d89b411161007157806395d89b4114610219578063a22cb46514610221578063b88d4fde14610234578063c87b56dd14610247578063e985e9c51461025a57600080fd5b806344df8e70146101d85780634f6ccce7146101e05780636352211e146101f357806370a082311461020657600080fd5b806318160ddd116100de57806318160ddd1461018d57806323b872dd1461019f5780632f745c59146101b257806342842e0e146101c557600080fd5b806301ffc9a71461011057806306fdde0314610138578063081812fc1461014d578063095ea7b314610178575b600080fd5b61012361011e3660046111b6565b610296565b60405190151581526020015b60405180910390f35b6101406102c1565b60405161012f9190611232565b61016061015b366004611245565b610353565b6040516001600160a01b03909116815260200161012f565b61018b61018636600461127a565b61037a565b005b6008545b60405190815260200161012f565b61018b6101ad3660046112a4565b610494565b6101916101c036600461127a565b6104c5565b61018b6101d33660046112a4565b61055b565b610191610576565b6101916101ee366004611245565b610588565b610160610201366004611245565b61061b565b6101916102143660046112e0565b61067b565b610140610701565b61018b61022f3660046112fb565b610710565b61018b61024236600461134d565b61071f565b610140610255366004611245565b610757565b610123610268366004611429565b6001600160a01b03918216600090815260056020908152604080832093909416825291909152205460ff1690565b60006001600160e01b0319821663780e9d6360e01b14806102bb57506102bb82610841565b92915050565b6060600080546102d09061145c565b80601f01602080910402602001604051908101604052809291908181526020018280546102fc9061145c565b80156103495780601f1061031e57610100808354040283529160200191610349565b820191906000526020600020905b81548152906001019060200180831161032c57829003601f168201915b5050505050905090565b600061035e82610891565b506000908152600460205260409020546001600160a01b031690565b60006103858261061b565b9050806001600160a01b0316836001600160a01b0316036103f75760405162461bcd60e51b815260206004820152602160248201527f4552433732313a20617070726f76616c20746f2063757272656e74206f776e656044820152603960f91b60648201526084015b60405180910390fd5b336001600160a01b038216148061041357506104138133610268565b6104855760405162461bcd60e51b815260206004820152603e60248201527f4552433732313a20617070726f76652063616c6c6572206973206e6f7420746f60448201527f6b656e206f776e6572206e6f7220617070726f76656420666f7220616c6c000060648201526084016103ee565b61048f83836108f3565b505050565b61049e3382610961565b6104ba5760405162461bcd60e51b81526004016103ee90611496565b61048f8383836109e0565b60006104d08361067b565b82106105325760405162461bcd60e51b815260206004820152602b60248201527f455243373231456e756d657261626c653a206f776e657220696e646578206f7560448201526a74206f6620626f756e647360a81b60648201526084016103ee565b506001600160a01b03919091166000908152600660209081526040808320938352929052205490565b61048f8383836040518060200160405280600081525061071f565b60006105826000610b87565b50600090565b600061059360085490565b82106105f65760405162461bcd60e51b815260206004820152602c60248201527f455243373231456e756d657261626c653a20676c6f62616c20696e646578206f60448201526b7574206f6620626f756e647360a01b60648201526084016103ee565b60088281548110610609576106096114e4565b90600052602060002001549050919050565b6000818152600260205260408120546001600160a01b0316806102bb5760405162461bcd60e51b8152602060048201526018602482015277115490cdcc8c4e881a5b9d985b1a59081d1bdad95b88125160421b60448201526064016103ee565b60006001600160a01b0382166106e55760405162461bcd60e51b815260206004820152602960248201527f4552433732313a2061646472657373207a65726f206973206e6f7420612076616044820152683634b21037bbb732b960b91b60648201526084016103ee565b506001600160a01b031660009081526003602052604090205490565b6060600180546102d09061145c565b61071b338383610c2e565b5050565b6107293383610961565b6107455760405162461bcd60e51b81526004016103ee90611496565b61075184848484610cfc565b50505050565b6060610761611179565b600a805461076e9061145c565b80601f016020809104026020016040519081016040528092919081815260200182805461079a9061145c565b80156107e75780601f106107bc576101008083540402835291602001916107e7565b820191906000526020600020905b8154815290600101906020018083116107ca57829003601f168201915b5050505050816000600281106107ff576107ff6114e4565b602002015261080d83610d2f565b60208083018290528251604051600093610829939091016114fa565b60408051601f19818403018152919052949350505050565b60006001600160e01b031982166380ac58cd60e01b148061087257506001600160e01b03198216635b5e139f60e01b145b806102bb57506301ffc9a760e01b6001600160e01b03198316146102bb565b6000818152600260205260409020546001600160a01b03166108f05760405162461bcd60e51b8152602060048201526018602482015277115490cdcc8c4e881a5b9d985b1a59081d1bdad95b88125160421b60448201526064016103ee565b50565b600081815260046020526040902080546001600160a01b0319166001600160a01b03841690811790915581906109288261061b565b6001600160a01b03167f8c5be1e5ebec7d5bd14f71427d1e84f3dd0314c0f7b2291e5b200ac8c7c3b92560405160405180910390a45050565b60008061096d8361061b565b9050806001600160a01b0316846001600160a01b031614806109b457506001600160a01b0380821660009081526005602090815260408083209388168352929052205460ff165b806109d85750836001600160a01b03166109cd84610353565b6001600160a01b0316145b949350505050565b826001600160a01b03166109f38261061b565b6001600160a01b031614610a575760405162461bcd60e51b815260206004820152602560248201527f4552433732313a207472616e736665722066726f6d20696e636f72726563742060448201526437bbb732b960d91b60648201526084016103ee565b6001600160a01b038216610ab95760405162461bcd60e51b8152602060048201526024808201527f4552433732313a207472616e7366657220746f20746865207a65726f206164646044820152637265737360e01b60648201526084016103ee565b610ac4838383610e30565b610acf6000826108f3565b6001600160a01b0383166000908152600360205260408120805460019290610af890849061153f565b90915550506001600160a01b0382166000908152600360205260408120805460019290610b26908490611556565b909155505060008181526002602052604080822080546001600160a01b0319166001600160a01b0386811691821790925591518493918716917fddf252ad1be2c89b69c2b068fc378daa952ba7f163c4a11628f55a4df523b3ef91a4505050565b6000610b928261061b565b9050610ba081600084610e30565b610bab6000836108f3565b6001600160a01b0381166000908152600360205260408120805460019290610bd490849061153f565b909155505060008281526002602052604080822080546001600160a01b0319169055518391906001600160a01b038416907fddf252ad1be2c89b69c2b068fc378daa952ba7f163c4a11628f55a4df523b3ef908390a45050565b816001600160a01b0316836001600160a01b031603610c8f5760405162461bcd60e51b815260206004820152601960248201527f4552433732313a20617070726f766520746f2063616c6c65720000000000000060448201526064016103ee565b6001600160a01b03838116600081815260056020908152604080832094871680845294825291829020805460ff191686151590811790915591519182527f17307eab39ab6107e8899845ad3d59bd9653f200f220920489ca2b5937696c31910160405180910390a3505050565b610d078484846109e0565b610d1384848484610ee8565b6107515760405162461bcd60e51b81526004016103ee9061156e565b606081600003610d565750506040805180820190915260018152600360fc1b602082015290565b8160005b8115610d805780610d6a816115c0565b9150610d799050600a836115ef565b9150610d5a565b60008167ffffffffffffffff811115610d9b57610d9b611337565b6040519080825280601f01601f191660200182016040528015610dc5576020820181803683370190505b5090505b84156109d857610dda60018361153f565b9150610de7600a86611603565b610df2906030611556565b60f81b818381518110610e0757610e076114e4565b60200101906001600160f81b031916908160001a905350610e29600a866115ef565b9450610dc9565b6001600160a01b038316610e8b57610e8681600880546000838152600960205260408120829055600182018355919091527ff3f7a9fe364faab93b216da50a3214154f22a0a2b415b23a84c8169e8b636ee30155565b610eae565b816001600160a01b0316836001600160a01b031614610eae57610eae8382610fe9565b6001600160a01b038216610ec55761048f81611086565b826001600160a01b0316826001600160a01b03161461048f5761048f8282611135565b60006001600160a01b0384163b15610fde57604051630a85bd0160e11b81526001600160a01b0385169063150b7a0290610f2c903390899088908890600401611617565b6020604051808303816000875af1925050508015610f67575060408051601f3d908101601f19168201909252610f6491810190611654565b60015b610fc4573d808015610f95576040519150601f19603f3d011682016040523d82523d6000602084013e610f9a565b606091505b508051600003610fbc5760405162461bcd60e51b81526004016103ee9061156e565b805181602001fd5b6001600160e01b031916630a85bd0160e11b1490506109d8565b506001949350505050565b60006001610ff68461067b565b611000919061153f565b600083815260076020526040902054909150808214611053576001600160a01b03841660009081526006602090815260408083208584528252808320548484528184208190558352600790915290208190555b5060009182526007602090815260408084208490556001600160a01b039094168352600681528383209183525290812055565b6008546000906110989060019061153f565b600083815260096020526040812054600880549394509092849081106110c0576110c06114e4565b9060005260206000200154905080600883815481106110e1576110e16114e4565b600091825260208083209091019290925582815260099091526040808220849055858252812055600880548061111957611119611671565b6001900381819060005260206000200160009055905550505050565b60006111408361067b565b6001600160a01b039093166000908152600660209081526040808320868452825280832085905593825260079052919091209190915550565b60405180604001604052806002905b60608152602001906001900390816111885790505090565b6001600160e01b0319811681146108f057600080fd5b6000602082840312156111c857600080fd5b81356111d3816111a0565b9392505050565b60005b838110156111f55781810151838201526020016111dd565b838111156107515750506000910152565b6000815180845261121e8160208601602086016111da565b601f01601f19169290920160200192915050565b6020815260006111d36020830184611206565b60006020828403121561125757600080fd5b5035919050565b80356001600160a01b038116811461127557600080fd5b919050565b6000806040838503121561128d57600080fd5b6112968361125e565b946020939093013593505050565b6000806000606084860312156112b957600080fd5b6112c28461125e565b92506112d06020850161125e565b9150604084013590509250925092565b6000602082840312156112f257600080fd5b6111d38261125e565b6000806040838503121561130e57600080fd5b6113178361125e565b91506020830135801515811461132c57600080fd5b809150509250929050565b634e487b7160e01b600052604160045260246000fd5b6000806000806080858703121561136357600080fd5b61136c8561125e565b935061137a6020860161125e565b925060408501359150606085013567ffffffffffffffff8082111561139e57600080fd5b818701915087601f8301126113b257600080fd5b8135818111156113c4576113c4611337565b604051601f8201601f19908116603f011681019083821181831017156113ec576113ec611337565b816040528281528a602084870101111561140557600080fd5b82602086016020830137600060208483010152809550505050505092959194509250565b6000806040838503121561143c57600080fd5b6114458361125e565b91506114536020840161125e565b90509250929050565b600181811c9082168061147057607f821691505b60208210810361149057634e487b7160e01b600052602260045260246000fd5b50919050565b6020808252602e908201527f4552433732313a2063616c6c6572206973206e6f7420746f6b656e206f776e6560408201526d1c881b9bdc88185c1c1c9bdd995960921b606082015260800190565b634e487b7160e01b600052603260045260246000fd5b6000835161150c8184602088016111da565b8351908301906115208183602088016111da565b01949350505050565b634e487b7160e01b600052601160045260246000fd5b60008282101561155157611551611529565b500390565b6000821982111561156957611569611529565b500190565b60208082526032908201527f4552433732313a207472616e7366657220746f206e6f6e20455243373231526560408201527131b2b4bb32b91034b6b83632b6b2b73a32b960711b606082015260800190565b6000600182016115d2576115d2611529565b5060010190565b634e487b7160e01b600052601260045260246000fd5b6000826115fe576115fe6115d9565b500490565b600082611612576116126115d9565b500690565b6001600160a01b038581168252841660208201526040810183905260806060820181905260009061164a90830184611206565b9695505050505050565b60006020828403121561166657600080fd5b81516111d3816111a0565b634e487b7160e01b600052603160045260246000fdfea2646970667358221220a2bf2b142f84ec832bbb4712c66614e4600a0ebf8e1f42d6e29c3ac4238c0f7f64736f6c634300080d0033697066733a2f2f516d65536a53696e4870506e6d586d73704d6a776958794e367a533445397a63636172694752336a7863615774712f",
  "linkReferences": {},
  "deployedLinkReferences": {}
}