{
  "_format": "hh-sol-artifact-1",
  "contractName": "PassNFT",
  "sourceName": "contracts/PassNFT.sol",
  "abi": [
    {
      "inputs": [
        {
          "internalType": "address",
          "name": "DerivativeNFTAddress",
          "type": "address"
        },
        {
          "internalType": "address",
          "name": "delegate",
          "type": "address"
        }
      ],
      "stateMutability": "nonpayable",
      "type": "constructor"
    },
    {
      "anonymous": false,
      "inputs": [
        {
          "indexed": true,
          "internalType": "address",
          "name": "owner",
          "type": "address"
        },
        {
          "indexed": true,
          "internalType": "address",
          "name": "approved",
          "type": "address"
        },
        {
          "indexed": true,
          "internalType": "uint256",
          "name": "tokenId",
          "type": "uint256"
        }
      ],
      "name": "Approval",
      "type": "event"
    },
    {
      "anonymous": false,
      "inputs": [
        {
          "indexed": true,
          "internalType": "address",
          "name": "owner",
          "type": "address"
        },
        {
          "indexed": true,
          "internalType": "address",
          "name": "operator",
          "type": "address"
        },
        {
          "indexed": false,
          "internalType": "bool",
          "name": "approved",
          "type": "bool"
        }
      ],
      "name": "ApprovalForAll",
      "type": "event"
    },
    {
      "anonymous": false,
      "inputs": [
        {
          "indexed": true,
          "internalType": "address",
          "name": "delegateLegacyAddress",
          "type": "address"
        },
        {
          "indexed": true,
          "internalType": "address",
          "name": "newDelegateLegacyAddress",
          "type": "address"
        }
      ],
      "name": "DelegateUpdated",
      "type": "event"
    },
    {
      "anonymous": false,
      "inputs": [
        {
          "indexed": true,
          "internalType": "bytes32",
          "name": "previousOwnerAddress",
          "type": "bytes32"
        },
        {
          "indexed": true,
          "internalType": "bytes32",
          "name": "newOwnerAddress",
          "type": "bytes32"
        }
      ],
      "name": "OwnershipTransferred",
      "type": "event"
    },
    {
      "anonymous": false,
      "inputs": [
        {
          "indexed": true,
          "internalType": "bytes32",
          "name": "senderAddress",
          "type": "bytes32"
        },
        {
          "indexed": true,
          "internalType": "bytes32",
          "name": "receiverAddress",
          "type": "bytes32"
        },
        {
          "indexed": true,
          "internalType": "uint256",
          "name": "tokenId",
          "type": "uint256"
        }
      ],
      "name": "SpanningApproval",
      "type": "event"
    },
    {
      "anonymous": false,
      "inputs": [
        {
          "indexed": true,
          "internalType": "bytes32",
          "name": "senderAddress",
          "type": "bytes32"
        },
        {
          "indexed": true,
          "internalType": "bytes32",
          "name": "receiverAddress",
          "type": "bytes32"
        },
        {
          "indexed": false,
          "internalType": "bool",
          "name": "approved",
          "type": "bool"
        }
      ],
      "name": "SpanningApprovalForAll",
      "type": "event"
    },
    {
      "anonymous": false,
      "inputs": [
        {
          "indexed": true,
          "internalType": "bytes32",
          "name": "senderAddress",
          "type": "bytes32"
        },
        {
          "indexed": true,
          "internalType": "bytes32",
          "name": "receiverAddress",
          "type": "bytes32"
        },
        {
          "indexed": true,
          "internalType": "uint256",
          "name": "tokenId",
          "type": "uint256"
        }
      ],
      "name": "SpanningTransfer",
      "type": "event"
    },
    {
      "anonymous": false,
      "inputs": [
        {
          "indexed": true,
          "internalType": "address",
          "name": "from",
          "type": "address"
        },
        {
          "indexed": true,
          "internalType": "address",
          "name": "to",
          "type": "address"
        },
        {
          "indexed": true,
          "internalType": "uint256",
          "name": "tokenId",
          "type": "uint256"
        }
      ],
      "name": "Transfer",
      "type": "event"
    },
    {
      "inputs": [],
      "name": "DNFTAddress",
      "outputs": [
        {
          "internalType": "address",
          "name": "",
          "type": "address"
        }
      ],
      "stateMutability": "view",
      "type": "function"
    },
    {
      "inputs": [
        {
          "internalType": "address",
          "name": "receiverLegacyAddress",
          "type": "address"
        },
        {
          "internalType": "uint256",
          "name": "tokenId",
          "type": "uint256"
        }
      ],
      "name": "approve",
      "outputs": [],
      "stateMutability": "nonpayable",
      "type": "function"
    },
    {
      "inputs": [
        {
          "internalType": "bytes32",
          "name": "receiverAddress",
          "type": "bytes32"
        },
        {
          "internalType": "uint256",
          "name": "tokenId",
          "type": "uint256"
        }
      ],
      "name": "approve",
      "outputs": [],
      "stateMutability": "nonpayable",
      "type": "function"
    },
    {
      "inputs": [
        {
          "internalType": "bytes32",
          "name": "accountAddress",
          "type": "bytes32"
        }
      ],
      "name": "balanceOf",
      "outputs": [
        {
          "internalType": "uint256",
          "name": "",
          "type": "uint256"
        }
      ],
      "stateMutability": "view",
      "type": "function"
    },
    {
      "inputs": [
        {
          "internalType": "address",
          "name": "accountLegacyAddress",
          "type": "address"
        }
      ],
      "name": "balanceOf",
      "outputs": [
        {
          "internalType": "uint256",
          "name": "",
          "type": "uint256"
        }
      ],
      "stateMutability": "view",
      "type": "function"
    },
    {
      "inputs": [
        {
          "internalType": "uint256",
          "name": "tokenId",
          "type": "uint256"
        }
      ],
      "name": "getApproved",
      "outputs": [
        {
          "internalType": "address",
          "name": "",
          "type": "address"
        }
      ],
      "stateMutability": "view",
      "type": "function"
    },
    {
      "inputs": [
        {
          "internalType": "uint256",
          "name": "tokenId",
          "type": "uint256"
        }
      ],
      "name": "getApprovedSpanning",
      "outputs": [
        {
          "internalType": "bytes32",
          "name": "",
          "type": "bytes32"
        }
      ],
      "stateMutability": "view",
      "type": "function"
    },
    {
      "inputs": [
        {
          "internalType": "bytes32",
          "name": "senderAddress",
          "type": "bytes32"
        },
        {
          "internalType": "bytes32",
          "name": "receiverAddress",
          "type": "bytes32"
        }
      ],
      "name": "isApprovedForAll",
      "outputs": [
        {
          "internalType": "bool",
          "name": "",
          "type": "bool"
        }
      ],
      "stateMutability": "view",
      "type": "function"
    },
    {
      "inputs": [
        {
          "internalType": "address",
          "name": "senderLegacyAddress",
          "type": "address"
        },
        {
          "internalType": "address",
          "name": "receiverLegacyAddress",
          "type": "address"
        }
      ],
      "name": "isApprovedForAll",
      "outputs": [
        {
          "internalType": "bool",
          "name": "",
          "type": "bool"
        }
      ],
      "stateMutability": "view",
      "type": "function"
    },
    {
      "inputs": [],
      "name": "isSpanning",
      "outputs": [
        {
          "internalType": "bool",
          "name": "",
          "type": "bool"
        }
      ],
      "stateMutability": "pure",
      "type": "function"
    },
    {
      "inputs": [],
      "name": "isSpanningCall",
      "outputs": [
        {
          "internalType": "bool",
          "name": "",
          "type": "bool"
        }
      ],
      "stateMutability": "view",
      "type": "function"
    },
    {
      "inputs": [
        {
          "internalType": "bytes32",
          "name": "_owner",
          "type": "bytes32"
        },
        {
          "internalType": "uint256",
          "name": "_tokenID",
          "type": "uint256"
        }
      ],
      "name": "mintToStaker",
      "outputs": [],
      "stateMutability": "nonpayable",
      "type": "function"
    },
    {
      "inputs": [
        {
          "internalType": "address",
          "name": "_owner",
          "type": "address"
        },
        {
          "internalType": "uint256",
          "name": "_tokenID",
          "type": "uint256"
        }
      ],
      "name": "mintToStaker",
      "outputs": [],
      "stateMutability": "nonpayable",
      "type": "function"
    },
    {
      "inputs": [],
      "name": "name",
      "outputs": [
        {
          "internalType": "string",
          "name": "",
          "type": "string"
        }
      ],
      "stateMutability": "view",
      "type": "function"
    },
    {
      "inputs": [],
      "name": "owner",
      "outputs": [
        {
          "internalType": "bytes32",
          "name": "",
          "type": "bytes32"
        }
      ],
      "stateMutability": "view",
      "type": "function"
    },
    {
      "inputs": [
        {
          "internalType": "uint256",
          "name": "tokenId",
          "type": "uint256"
        }
      ],
      "name": "ownerOf",
      "outputs": [
        {
          "internalType": "address",
          "name": "",
          "type": "address"
        }
      ],
      "stateMutability": "view",
      "type": "function"
    },
    {
      "inputs": [
        {
          "internalType": "uint256",
          "name": "tokenId",
          "type": "uint256"
        }
      ],
      "name": "ownerOfSpanning",
      "outputs": [
        {
          "internalType": "bytes32",
          "name": "",
          "type": "bytes32"
        }
      ],
      "stateMutability": "view",
      "type": "function"
    },
    {
      "inputs": [],
      "name": "renounceOwnership",
      "outputs": [],
      "stateMutability": "nonpayable",
      "type": "function"
    },
    {
      "inputs": [
        {
          "internalType": "address",
          "name": "senderLegacyAddress",
          "type": "address"
        },
        {
          "internalType": "address",
          "name": "receiverLegacyAddress",
          "type": "address"
        },
        {
          "internalType": "uint256",
          "name": "tokenId",
          "type": "uint256"
        }
      ],
      "name": "safeTransferFrom",
      "outputs": [],
      "stateMutability": "nonpayable",
      "type": "function"
    },
    {
      "inputs": [
        {
          "internalType": "address",
          "name": "senderLegacyAddress",
          "type": "address"
        },
        {
          "internalType": "address",
          "name": "receiverLegacyAddress",
          "type": "address"
        },
        {
          "internalType": "uint256",
          "name": "tokenId",
          "type": "uint256"
        },
        {
          "internalType": "bytes",
          "name": "payload",
          "type": "bytes"
        }
      ],
      "name": "safeTransferFrom",
      "outputs": [],
      "stateMutability": "nonpayable",
      "type": "function"
    },
    {
      "inputs": [
        {
          "internalType": "bytes32",
          "name": "senderAddress",
          "type": "bytes32"
        },
        {
          "internalType": "bytes32",
          "name": "receiverAddress",
          "type": "bytes32"
        },
        {
          "internalType": "uint256",
          "name": "tokenId",
          "type": "uint256"
        }
      ],
      "name": "safeTransferFrom",
      "outputs": [],
      "stateMutability": "nonpayable",
      "type": "function"
    },
    {
      "inputs": [
        {
          "internalType": "bytes32",
          "name": "senderAddress",
          "type": "bytes32"
        },
        {
          "internalType": "bytes32",
          "name": "receiverAddress",
          "type": "bytes32"
        },
        {
          "internalType": "uint256",
          "name": "tokenId",
          "type": "uint256"
        },
        {
          "internalType": "bytes",
          "name": "payload",
          "type": "bytes"
        }
      ],
      "name": "safeTransferFrom",
      "outputs": [],
      "stateMutability": "nonpayable",
      "type": "function"
    },
    {
      "inputs": [
        {
          "internalType": "address",
          "name": "receiverLegacyAddress",
          "type": "address"
        },
        {
          "internalType": "bool",
          "name": "shouldApprove",
          "type": "bool"
        }
      ],
      "name": "setApprovalForAll",
      "outputs": [],
      "stateMutability": "nonpayable",
      "type": "function"
    },
    {
      "inputs": [
        {
          "internalType": "bytes32",
          "name": "receiverAddress",
          "type": "bytes32"
        },
        {
          "internalType": "bool",
          "name": "shouldApprove",
          "type": "bool"
        }
      ],
      "name": "setApprovalForAll",
      "outputs": [],
      "stateMutability": "nonpayable",
      "type": "function"
    },
    {
      "inputs": [
        {
          "internalType": "bytes4",
          "name": "interfaceId",
          "type": "bytes4"
        }
      ],
      "name": "supportsInterface",
      "outputs": [
        {
          "internalType": "bool",
          "name": "",
          "type": "bool"
        }
      ],
      "stateMutability": "view",
      "type": "function"
    },
    {
      "inputs": [],
      "name": "symbol",
      "outputs": [
        {
          "internalType": "string",
          "name": "",
          "type": "string"
        }
      ],
      "stateMutability": "view",
      "type": "function"
    },
    {
      "inputs": [
        {
          "internalType": "uint256",
          "name": "index",
          "type": "uint256"
        }
      ],
      "name": "tokenByIndex",
      "outputs": [
        {
          "internalType": "uint256",
          "name": "",
          "type": "uint256"
        }
      ],
      "stateMutability": "view",
      "type": "function"
    },
    {
      "inputs": [
        {
          "internalType": "address",
          "name": "owner",
          "type": "address"
        },
        {
          "internalType": "uint256",
          "name": "index",
          "type": "uint256"
        }
      ],
      "name": "tokenOfOwnerByIndex",
      "outputs": [
        {
          "internalType": "uint256",
          "name": "",
          "type": "uint256"
        }
      ],
      "stateMutability": "view",
      "type": "function"
    },
    {
      "inputs": [
        {
          "internalType": "bytes32",
          "name": "owner",
          "type": "bytes32"
        },
        {
          "internalType": "uint256",
          "name": "index",
          "type": "uint256"
        }
      ],
      "name": "tokenOfOwnerByIndex",
      "outputs": [
        {
          "internalType": "uint256",
          "name": "",
          "type": "uint256"
        }
      ],
      "stateMutability": "view",
      "type": "function"
    },
    {
      "inputs": [
        {
          "internalType": "uint256",
          "name": "tokenId",
          "type": "uint256"
        }
      ],
      "name": "tokenURI",
      "outputs": [
        {
          "internalType": "string",
          "name": "",
          "type": "string"
        }
      ],
      "stateMutability": "view",
      "type": "function"
    },
    {
      "inputs": [],
      "name": "totalSupply",
      "outputs": [
        {
          "internalType": "uint256",
          "name": "",
          "type": "uint256"
        }
      ],
      "stateMutability": "view",
      "type": "function"
    },
    {
      "inputs": [
        {
          "internalType": "address",
          "name": "senderLegacyAddress",
          "type": "address"
        },
        {
          "internalType": "address",
          "name": "receiverLegacyAddress",
          "type": "address"
        },
        {
          "internalType": "uint256",
          "name": "tokenId",
          "type": "uint256"
        }
      ],
      "name": "transferFrom",
      "outputs": [],
      "stateMutability": "nonpayable",
      "type": "function"
    },
    {
      "inputs": [
        {
          "internalType": "bytes32",
          "name": "senderAddress",
          "type": "bytes32"
        },
        {
          "internalType": "bytes32",
          "name": "receiverAddress",
          "type": "bytes32"
        },
        {
          "internalType": "uint256",
          "name": "tokenId",
          "type": "uint256"
        }
      ],
      "name": "transferFrom",
      "outputs": [],
      "stateMutability": "nonpayable",
      "type": "function"
    },
    {
      "inputs": [
        {
          "internalType": "bytes32",
          "name": "newOwnerAddress",
          "type": "bytes32"
        }
      ],
      "name": "transferOwnership",
      "outputs": [],
      "stateMutability": "nonpayable",
      "type": "function"
    },
    {
      "inputs": [
        {
          "internalType": "address",
          "name": "newDelegateLegacyAddress",
          "type": "address"
        }
      ],
      "name": "updateDelegate",
      "outputs": [],
      "stateMutability": "nonpayable",
      "type": "function"
    }
  ],
  "bytecode": "0x60806040523480156200001157600080fd5b50604051620032d0380380620032d083398101604081905262000034916200031b565b604080518082018252600781526614185cdcd3919560ca1b602080830191909152825180840190935260048352635061737360e01b90830152600080546001600160a01b0385166001600160a01b03199182168117909255600180549091169091179055908280620000b0620000aa3362000109565b620001a9565b508251620000c690600390602086019062000258565b508151620000dc90600490602085019062000258565b5050600d80546001600160a01b0319166001600160a01b03959095169490941790935550620003dc915050565b600073__$7b4e2e76bef7af7428c2716434f5e70252$__63bdb409df8362000130620001e2565b6040516001600160e01b031960e085901b811682526001600160a01b03909316600482015291166024820152604401602060405180830381865af41580156200017d573d6000803e3d6000fd5b505050506040513d601f19601f82011682018060405250810190620001a3919062000353565b92915050565b6002805490829055604051829082907fcbbb77f62b929125ef27b63e21aa7682e6a2cb1f238a0c221931211b4d1913eb90600090a35050565b6001546040805163b68d180960e01b815290516000926001600160a01b03169163b68d18099160048083019260209291908290030181865afa1580156200022d573d6000803e3d6000fd5b505050506040513d601f19601f820116820180604052508101906200025391906200036d565b905090565b8280546200026690620003a0565b90600052602060002090601f0160209004810192826200028a5760008555620002d5565b82601f10620002a557805160ff1916838001178555620002d5565b82800160010185558215620002d5579182015b82811115620002d5578251825591602001919060010190620002b8565b50620002e3929150620002e7565b5090565b5b80821115620002e35760008155600101620002e8565b80516001600160a01b03811681146200031657600080fd5b919050565b600080604083850312156200032f57600080fd5b6200033a83620002fe565b91506200034a60208401620002fe565b90509250929050565b6000602082840312156200036657600080fd5b5051919050565b6000602082840312156200038057600080fd5b81516001600160e01b0319811681146200039957600080fd5b9392505050565b600181811c90821680620003b557607f821691505b602082108103620003d657634e487b7160e01b600052602260045260246000fd5b50919050565b612ee480620003ec6000396000f3fe608060405234801561001057600080fd5b50600436106102115760003560e01c806370a0823111610125578063c1e74ead116100ad578063e985e9c51161007c578063e985e9c514610463578063f659592b14610476578063f807e3da14610489578063fb7a529b1461049c578063fe3f9b0e146104af57600080fd5b8063c1e74ead14610417578063c87b56dd1461042a578063c8b360871461043d578063d614b7121461045057600080fd5b806395d89b41116100f457806395d89b41146103a8578063a02515bf146103b0578063a22cb465146103de578063b202d470146103f1578063b88d4fde1461040457600080fd5b806370a0823114610372578063715018a614610385578063792645991461038d5780638da5cb5b146103a057600080fd5b80632f745c59116101a85780634714442111610177578063471444211461031f57806347e1ca9c146103325780634f6ccce7146103395780636352211e1461034c5780636c7f15421461035f57600080fd5b80632f745c59146102de5780632f8a37a8146102f15780632fb840f5146102f957806342842e0e1461030c57600080fd5b8063095ea7b3116101e4578063095ea7b31461029157806318160ddd146102a657806323b872dd146102b8578063241bbc26146102cb57600080fd5b8063010db6fa1461021657806301ffc9a71461024657806306fdde0314610269578063081812fc1461027e575b600080fd5b600d54610229906001600160a01b031681565b6040516001600160a01b0390911681526020015b60405180910390f35b6102596102543660046125b8565b6104c2565b604051901515815260200161023d565b6102716104ed565b60405161023d919061262d565b61022961028c366004612640565b61057f565b6102a461029f36600461266e565b61062c565b005b600b545b60405190815260200161023d565b6102a46102c636600461269a565b610648565b6102a46102d93660046126db565b610674565b6102aa6102ec36600461266e565b6106f4565b61025961074b565b6102a46103073660046126fd565b61076f565b6102a461031a36600461269a565b6107ae565b6102a461032d3660046126db565b6107e3565b6001610259565b6102aa610347366004612640565b61087b565b61022961035a366004612640565b61090e565b6102aa61036d366004612640565b61091a565b6102aa610380366004612729565b610a06565b6102a4610a24565b6102aa61039b3660046126db565b610ad8565b6002546102aa565b610271610b1f565b6102596103be3660046126db565b600091825260086020908152604080842092845291905290205460ff1690565b6102a46103ec366004612754565b610b2e565b6102a46103ff36600461266e565b610b45565b6102a4610412366004612830565b610b5c565b6102a461042536600461289c565b610b8a565b610271610438366004612640565b610b94565b6102a461044b3660046126fd565b610cad565b6102a461045e3660046128c1565b610cc4565b610259610471366004612903565b610cf8565b6102aa610484366004612640565b610d37565b6102a4610497366004612640565b610e18565b6102aa6104aa366004612640565b610f28565b6102a46104bd366004612729565b610fa7565b60006001600160e01b03198216637926459960e01b14806104e757506104e7826110fc565b92915050565b6060600380546104fc90612931565b80601f016020809104026020016040519081016040528092919081815260200182805461052890612931565b80156105755780601f1061054a57610100808354040283529160200191610575565b820191906000526020600020905b81548152906001019060200180831161055857829003601f168201915b5050505050905090565b60008061058b83610f28565b905060006105988261114c565b90506105a26111c3565b6001600160e01b031982811691161461061b5760405162461bcd60e51b815260206004820152603060248201527f4552433732313a2072656d6f7465206163636f756e742072657175657374696e60448201526f67206c6567616379206164647265737360801b60648201526084015b60405180910390fd5b61062482611236565b949350505050565b6000610637836113ae565b905061064381836107e3565b505050565b6000610653846113ae565b90506000610660846113ae565b905061066d82828561076f565b5050505050565b600d546001600160a01b031661069061068b611443565b611236565b6001600160a01b0316146106e65760405162461bcd60e51b815260206004820152601760248201527f4e6f742074686520636f72726563742063616c6c65722e0000000000000000006044820152606401610612565b6106f082826115ab565b5050565b600080610700846113ae565b905061070b8161091a565b83106107295760405162461bcd60e51b81526004016106129061296b565b6000908152600960209081526040808320858452909152902054905092915050565b6000336107606000546001600160a01b031690565b6001600160a01b031614905090565b8061078161077b611443565b826118c8565b61079d5760405162461bcd60e51b8152600401610612906129b6565b6107a8848484611981565b50505050565b60006107b9846113ae565b905060006107c6846113ae565b905061066d82828560405180602001604052806000815250610cc4565b806107ef61077b611443565b61080b5760405162461bcd60e51b8152600401610612906129b6565b600061081683610d37565b90508084036108715760405162461bcd60e51b815260206004820152602160248201527f4552433732313a20617070726f76616c20746f2063757272656e74206f776e656044820152603960f91b6064820152608401610612565b6107a88484611c8b565b6000610886600b5490565b82106108e95760405162461bcd60e51b815260206004820152602c60248201527f455243373231456e756d657261626c653a20676c6f62616c20696e646578206f60448201526b7574206f6620626f756e647360a01b6064820152608401610612565b600b82815481106108fc576108fc6129ed565b90600052602060002001549050919050565b60008061058b83610d37565b6040516367348afd60e11b81526004810182905260009073__$7b4e2e76bef7af7428c2716434f5e70252$__9063ce6915fa90602401602060405180830381865af415801561096d573d6000803e3d6000fd5b505050506040513d601f19601f820116820180604052508101906109919190612a03565b6109f35760405162461bcd60e51b815260206004820152602d60248201527f4552433732313a2062616c616e636520717565727920666f722074686520696e60448201526c76616c6964206164647265737360981b6064820152608401610612565b5060009081526006602052604090205490565b600080610a12836113ae565b9050610a1d8161091a565b9392505050565b610a2c611443565b60025473__$7b4e2e76bef7af7428c2716434f5e70252$__916320845949916040516001600160e01b031960e085901b16815260048101929092526024820152604401602060405180830381865af4158015610a8c573d6000803e3d6000fd5b505050506040513d601f19601f82011682018060405250810190610ab09190612a03565b610acc5760405162461bcd60e51b815260040161061290612a20565b610ad66000611d2c565b565b6000610ae38361091a565b8210610b015760405162461bcd60e51b81526004016106129061296b565b50600091825260096020908152604080842092845291905290205490565b6060600480546104fc90612931565b6000610b39836113ae565b90506106438183610b8a565b6000610b50836113ae565b90506106438183610674565b6000610b67856113ae565b90506000610b74856113ae565b9050610b8282828686610cc4565b505050505050565b6106f08282611d65565b6060610b9e61257b565b60405180610120016040528060fd8152602001612d7260fd91398152604080518082018252601e81527f3c746578743e4f726967696e616c204e465420486f6c6465722050617373000060208083019190915280840191825282518084018452600d81526c1e17ba32bc3a1f1e17b9bb339f60991b81830152838501819052845192519351600094610c34949390929101612a4d565b60405160208183030381529060405290506000610c81610c5386611f12565b610c5c84612013565b604051602001610c6d929190612a90565b604051602081830303815290604052612013565b905080604051602001610c949190612b79565b60408051601f1981840301815291905295945050505050565b610643838383604051806020016040528060008152505b81610cd061077b611443565b610cec5760405162461bcd60e51b8152600401610612906129b6565b61066d8585858561217d565b600080610d04846113ae565b90506000610d11846113ae565b60009283526008602090815260408085209285529190529091205460ff16949350505050565b6000818152600560205260408082205490516367348afd60e11b81526004810182905273__$7b4e2e76bef7af7428c2716434f5e70252$__9063ce6915fa90602401602060405180830381865af4158015610d96573d6000803e3d6000fd5b505050506040513d601f19601f82011682018060405250810190610dba9190612a03565b6104e75760405162461bcd60e51b815260206004820152602960248201527f4552433732313a206f776e657220717565727920666f72206e6f6e657869737460448201526832b73a103a37b5b2b760b91b6064820152608401610612565b610e20611443565b60025473__$7b4e2e76bef7af7428c2716434f5e70252$__916320845949916040516001600160e01b031960e085901b16815260048101929092526024820152604401602060405180830381865af4158015610e80573d6000803e3d6000fd5b505050506040513d601f19601f82011682018060405250810190610ea49190612a03565b610ec05760405162461bcd60e51b815260040161061290612a20565b80610f1c5760405162461bcd60e51b815260206004820152602660248201527f4f776e61626c653a206e6577206f776e657220697320746865207a65726f206160448201526564647265737360d01b6064820152608401610612565b610f2581611d2c565b50565b6000610f33826121b0565b610f945760405162461bcd60e51b815260206004820152602c60248201527f4552433732313a20617070726f76656420717565727920666f72206e6f6e657860448201526b34b9ba32b73a103a37b5b2b760a11b6064820152608401610612565b5060009081526007602052604090205490565b610faf611443565b60025473__$7b4e2e76bef7af7428c2716434f5e70252$__916320845949916040516001600160e01b031960e085901b16815260048101929092526024820152604401602060405180830381865af415801561100f573d6000803e3d6000fd5b505050506040513d601f19601f820116820180604052508101906110339190612a03565b61104f5760405162461bcd60e51b815260040161061290612a20565b6001600160a01b0381166110975760405162461bcd60e51b815260206004820152600f60248201526e496e76616c6964204164647265737360881b6044820152606401610612565b600080546040516001600160a01b03808516939216917f305bf06329ff886b42ab3ed2979092b17d3a7fc67e7de42ee393a24c8e39fee791a3600080546001600160a01b039092166001600160a01b0319928316811790915560018054909216179055565b60006001600160e01b031982166380ac58cd60e01b148061112d57506001600160e01b03198216635b5e139f60e01b145b806104e757506301ffc9a760e01b6001600160e01b03198316146104e7565b604051631a24254760e01b81526004810182905260009073__$7b4e2e76bef7af7428c2716434f5e70252$__90631a24254790602401602060405180830381865af415801561119f573d6000803e3d6000fd5b505050506040513d601f19601f820116820180604052508101906104e79190612bbe565b6001546040805163b68d180960e01b815290516000926001600160a01b03169163b68d18099160048083019260209291908290030181865afa15801561120d573d6000803e3d6000fd5b505050506040513d601f19601f820116820180604052508101906112319190612bbe565b905090565b6001546040805163b68d180960e01b8152905160009283926001600160a01b039091169163b68d1809916004808201926020929091908290030181865afa158015611285573d6000803e3d6000fd5b505050506040513d601f19601f820116820180604052508101906112a99190612bbe565b604051631a24254760e01b8152600481018590526001600160e01b0319919091169073__$7b4e2e76bef7af7428c2716434f5e70252$__90631a24254790602401602060405180830381865af4158015611307573d6000803e3d6000fd5b505050506040513d601f19601f8201168201806040525081019061132b9190612bbe565b6001600160e01b031916036104e7576040516321f8a72160e01b81526004810184905273__$7b4e2e76bef7af7428c2716434f5e70252$__906321f8a72190602401602060405180830381865af415801561138a573d6000803e3d6000fd5b505050506040513d601f19601f82011682018060405250810190610a1d9190612bdb565b600073__$7b4e2e76bef7af7428c2716434f5e70252$__63bdb409df836113d36111c3565b6040516001600160e01b031960e085901b811682526001600160a01b03909316600482015291166024820152604401602060405180830381865af415801561141f573d6000803e3d6000fd5b505050506040513d601f19601f820116820180604052508101906104e79190612bf8565b600154604080516365ab1b7360e01b815290516000926001600160a01b0316916365ab1b739160048083019260209291908290030181865afa15801561148d573d6000803e3d6000fd5b505050506040513d601f19601f820116820180604052508101906114b19190612bf8565b6040516367348afd60e11b8152600481019190915273__$7b4e2e76bef7af7428c2716434f5e70252$__9063ce6915fa90602401602060405180830381865af4158015611502573d6000803e3d6000fd5b505050506040513d601f19601f820116820180604052508101906115269190612a03565b156115a257600160009054906101000a90046001600160a01b03166001600160a01b03166365ab1b736040518163ffffffff1660e01b8152600401602060405180830381865afa15801561157e573d6000803e3d6000fd5b505050506040513d601f19601f820116820180604052508101906112319190612bf8565b611231336113ae565b6040516367348afd60e11b81526004810183905273__$7b4e2e76bef7af7428c2716434f5e70252$__9063ce6915fa90602401602060405180830381865af41580156115fb573d6000803e3d6000fd5b505050506040513d601f19601f8201168201806040525081019061161f9190612a03565b61166b5760405162461bcd60e51b815260206004820181905260248201527f4552433732313a206d696e7420746f20746865207a65726f20616464726573736044820152606401610612565b611674816121b0565b156116c15760405162461bcd60e51b815260206004820152601c60248201527f4552433732313a20746f6b656e20616c7265616479206d696e746564000000006044820152606401610612565b61173873__$7b4e2e76bef7af7428c2716434f5e70252$__63cbdd34cf6040518163ffffffff1660e01b8152600401602060405180830381865af415801561170d573d6000803e3d6000fd5b505050506040513d601f19601f820116820180604052508101906117319190612bf8565b8383612234565b6000828152600660205260408120805460019290611757908490612c27565b92505081905550816005600083815260200190815260200160002081905550808273__$7b4e2e76bef7af7428c2716434f5e70252$__63cbdd34cf6040518163ffffffff1660e01b8152600401602060405180830381865af41580156117c1573d6000803e3d6000fd5b505050506040513d601f19601f820116820180604052508101906117e59190612bf8565b6040517f6f533d76415d3d59b93bb3078196c9bd3497fd84281fb4bfbe9c0d9cd547a61190600090a48061181883611236565b6001600160a01b031660006001600160a01b03167fddf252ad1be2c89b69c2b068fc378daa952ba7f163c4a11628f55a4df523b3ef60405160405180910390a46106f073__$7b4e2e76bef7af7428c2716434f5e70252$__63cbdd34cf6040518163ffffffff1660e01b8152600401602060405180830381865af41580156118a4573d6000803e3d6000fd5b505050506040513d601f19601f82011682018060405250810190610f259190612bf8565b60006118d3826121b0565b6119345760405162461bcd60e51b815260206004820152602c60248201527f4552433732313a206f70657261746f7220717565727920666f72206e6f6e657860448201526b34b9ba32b73a103a37b5b2b760a11b6064820152608401610612565b600061193f83610d37565b9050808414806119685750600081815260086020908152604080832087845290915290205460ff165b8061062457508361197884610f28565b14949350505050565b61198a81610d37565b604051632084594960e01b815260048101919091526024810184905273__$7b4e2e76bef7af7428c2716434f5e70252$__90632084594990604401602060405180830381865af41580156119e2573d6000803e3d6000fd5b505050506040513d601f19601f82011682018060405250810190611a069190612a03565b611a605760405162461bcd60e51b815260206004820152602560248201527f4552433732313a207472616e736665722066726f6d20696e636f72726563742060448201526437bbb732b960d91b6064820152608401610612565b6040516367348afd60e11b81526004810183905273__$7b4e2e76bef7af7428c2716434f5e70252$__9063ce6915fa90602401602060405180830381865af4158015611ab0573d6000803e3d6000fd5b505050506040513d601f19601f82011682018060405250810190611ad49190612a03565b611b2c5760405162461bcd60e51b8152602060048201526024808201527f4552433732313a207472616e7366657220746f20746865207a65726f206164646044820152637265737360e01b6064820152608401610612565b611b37838383612234565b611bad73__$7b4e2e76bef7af7428c2716434f5e70252$__63cbdd34cf6040518163ffffffff1660e01b8152600401602060405180830381865af4158015611b83573d6000803e3d6000fd5b505050506040513d601f19601f82011682018060405250810190611ba79190612bf8565b82611c8b565b6000838152600660205260408120805460019290611bcc908490612c3f565b90915550506000828152600660205260408120805460019290611bf0908490612c27565b9091555050600081815260056020526040902082905580611c1083611236565b6001600160a01b0316611c2285611236565b6001600160a01b03167fddf252ad1be2c89b69c2b068fc378daa952ba7f163c4a11628f55a4df523b3ef60405160405180910390a48082847f6f533d76415d3d59b93bb3078196c9bd3497fd84281fb4bfbe9c0d9cd547a61160405160405180910390a4505050565b6000818152600760205260408120839055611ca582610d37565b905081611cb184611236565b6001600160a01b0316611cc383611236565b6001600160a01b03167f8c5be1e5ebec7d5bd14f71427d1e84f3dd0314c0f7b2291e5b200ac8c7c3b92560405160405180910390a48183827f550211b5b25df3f1db4086886852b7f445f1568fe69164e0b535ce75a078908e60405160405180910390a4505050565b6002805490829055604051829082907fcbbb77f62b929125ef27b63e21aa7682e6a2cb1f238a0c221931211b4d1913eb90600090a35050565b611d6d611443565b604051632084594960e01b815260048101919091526024810183905273__$7b4e2e76bef7af7428c2716434f5e70252$__90632084594990604401602060405180830381865af4158015611dc5573d6000803e3d6000fd5b505050506040513d601f19601f82011682018060405250810190611de99190612a03565b15611e365760405162461bcd60e51b815260206004820152601960248201527f4552433732313a20617070726f766520746f2063616c6c6572000000000000006044820152606401610612565b8060086000611e43611443565b8152602080820192909252604090810160009081208682529092529020805460ff1916911515919091179055611e7882611236565b6001600160a01b0316611e8c61068b611443565b6001600160a01b03167f17307eab39ab6107e8899845ad3d59bd9653f200f220920489ca2b5937696c3183604051611ec8911515815260200190565b60405180910390a381611ed9611443565b60405183151581527f9e515e9af66f657eca2fb1d9e6df84f8a728305e50f9018f9acdd888f4d258ef9060200160405180910390a35050565b606081600003611f395750506040805180820190915260018152600360fc1b602082015290565b8160005b8115611f635780611f4d81612c56565b9150611f5c9050600a83612c85565b9150611f3d565b60008167ffffffffffffffff811115611f7e57611f7e61278d565b6040519080825280601f01601f191660200182016040528015611fa8576020820181803683370190505b5090505b841561062457611fbd600183612c3f565b9150611fca600a86612c99565b611fd5906030612c27565b60f81b818381518110611fea57611fea6129ed565b60200101906001600160f81b031916908160001a90535061200c600a86612c85565b9450611fac565b80516060906000819003612037575050604080516020810190915260008152919050565b60006003612046836002612c27565b6120509190612c85565b61205b906004612cad565b9050600061206a826020612c27565b67ffffffffffffffff8111156120825761208261278d565b6040519080825280601f01601f1916602001820160405280156120ac576020820181803683370190505b5090506000604051806060016040528060408152602001612e6f604091399050600181016020830160005b86811015612138576003818a01810151603f601282901c8116860151600c83901c8216870151600684901c831688015192909316870151600891821b60ff94851601821b92841692909201901b91160160e01b8352600490920191016120d7565b50600386066001811461215257600281146121635761216f565b613d3d60f01b60011983015261216f565b603d60f81b6000198301525b505050918152949350505050565b612188848484611981565b612194848484846122b6565b6107a85760405162461bcd60e51b815260040161061290612ccc565b6000818152600560205260408082205490516367348afd60e11b8152600481019190915273__$7b4e2e76bef7af7428c2716434f5e70252$__9063ce6915fa90602401602060405180830381865af4158015612210573d6000803e3d6000fd5b505050506040513d601f19601f820116820180604052508101906104e79190612a03565b826122865761228181600b80546000838152600c60205260408120829055600182018355919091527f0175b7a638427703f0dbe7bb9bbf987a2551717b34e79f33b5b1008d1fa01db90155565b612297565b81831461229757612297838261240d565b816122a55761064381612496565b828214610643576106438282612545565b6000806122c286611236565b905060006122cf86611236565b90506001600160a01b0381163b1515801561230c57506122ed6111c3565b6001600160e01b0319166123008761114c565b6001600160e01b031916145b1561240257806001600160a01b031663150b7a0261232b61068b611443565b8488886040518563ffffffff1660e01b815260040161234d9493929190612d1e565b6020604051808303816000875af1925050508015612388575060408051601f3d908101601f1916820190925261238591810190612bbe565b60015b6123e5573d8080156123b6576040519150601f19603f3d011682016040523d82523d6000602084013e6123bb565b606091505b5080516000036123dd5760405162461bcd60e51b815260040161061290612ccc565b805181602001fd5b6001600160e01b031916630a85bd0160e11b149250610624915050565b600192505050610624565b6000600161241a8461091a565b6124249190612c3f565b6000838152600a602052604090205490915080821461246d5760008481526009602090815260408083208584528252808320548484528184208190558352600a90915290208190555b506000918252600a60209081526040808420849055938352600981528383209183525290812055565b600b546000906124a890600190612c3f565b6000838152600c6020526040812054600b80549394509092849081106124d0576124d06129ed565b9060005260206000200154905080600b83815481106124f1576124f16129ed565b6000918252602080832090910192909255828152600c9091526040808220849055858252812055600b80548061252957612529612d5b565b6001900381819060005260206000200160009055905550505050565b60006125508361091a565b60009384526009602090815260408086208387528252808620859055938552600a9052919092205550565b60405180606001604052806003905b606081526020019060019003908161258a5790505090565b6001600160e01b031981168114610f2557600080fd5b6000602082840312156125ca57600080fd5b8135610a1d816125a2565b60005b838110156125f05781810151838201526020016125d8565b838111156107a85750506000910152565b600081518084526126198160208601602086016125d5565b601f01601f19169290920160200192915050565b602081526000610a1d6020830184612601565b60006020828403121561265257600080fd5b5035919050565b6001600160a01b0381168114610f2557600080fd5b6000806040838503121561268157600080fd5b823561268c81612659565b946020939093013593505050565b6000806000606084860312156126af57600080fd5b83356126ba81612659565b925060208401356126ca81612659565b929592945050506040919091013590565b600080604083850312156126ee57600080fd5b50508035926020909101359150565b60008060006060848603121561271257600080fd5b505081359360208301359350604090920135919050565b60006020828403121561273b57600080fd5b8135610a1d81612659565b8015158114610f2557600080fd5b6000806040838503121561276757600080fd5b823561277281612659565b9150602083013561278281612746565b809150509250929050565b634e487b7160e01b600052604160045260246000fd5b600082601f8301126127b457600080fd5b813567ffffffffffffffff808211156127cf576127cf61278d565b604051601f8301601f19908116603f011681019082821181831017156127f7576127f761278d565b8160405283815286602085880101111561281057600080fd5b836020870160208301376000602085830101528094505050505092915050565b6000806000806080858703121561284657600080fd5b843561285181612659565b9350602085013561286181612659565b925060408501359150606085013567ffffffffffffffff81111561288457600080fd5b612890878288016127a3565b91505092959194509250565b600080604083850312156128af57600080fd5b82359150602083013561278281612746565b600080600080608085870312156128d757600080fd5b843593506020850135925060408501359150606085013567ffffffffffffffff81111561288457600080fd5b6000806040838503121561291657600080fd5b823561292181612659565b9150602083013561278281612659565b600181811c9082168061294557607f821691505b60208210810361296557634e487b7160e01b600052602260045260246000fd5b50919050565b6020808252602b908201527f455243373231456e756d657261626c653a206f776e657220696e646578206f7560408201526a74206f6620626f756e647360a81b606082015260800190565b6020808252601d908201527f6f6e6c794f776e65724f72417070726f7665643a2062616420726f6c65000000604082015260600190565b634e487b7160e01b600052603260045260246000fd5b600060208284031215612a1557600080fd5b8151610a1d81612746565b6020808252601390820152726f6e6c794f776e65723a2062616420726f6c6560681b604082015260600190565b60008451612a5f8184602089016125d5565b845190830190612a738183602089016125d5565b8451910190612a868183602088016125d5565b0195945050505050565b7f7b226e616d65223a2022486f6c64657220506173732023000000000000000000815260008351612ac88160178501602088016125d5565b7f222c20226465736372697074696f6e223a20224665656c206672656520746f206017918401918201527f757365204c6f6f7420696e20616e792077617920796f752077616e742e222c2060378201527f22696d616765223a2022646174613a696d6167652f7376672b786d6c3b626173605782015263194d8d0b60e21b60778201528351612b5e81607b8401602088016125d5565b61227d60f01b607b9290910191820152607d01949350505050565b7f646174613a6170706c69636174696f6e2f6a736f6e3b6261736536342c000000815260008251612bb181601d8501602087016125d5565b91909101601d0192915050565b600060208284031215612bd057600080fd5b8151610a1d816125a2565b600060208284031215612bed57600080fd5b8151610a1d81612659565b600060208284031215612c0a57600080fd5b5051919050565b634e487b7160e01b600052601160045260246000fd5b60008219821115612c3a57612c3a612c11565b500190565b600082821015612c5157612c51612c11565b500390565b600060018201612c6857612c68612c11565b5060010190565b634e487b7160e01b600052601260045260246000fd5b600082612c9457612c94612c6f565b500490565b600082612ca857612ca8612c6f565b500690565b6000816000190483118215151615612cc757612cc7612c11565b500290565b60208082526032908201527f4552433732313a207472616e7366657220746f206e6f6e20455243373231526560408201527131b2b4bb32b91034b6b83632b6b2b73a32b960711b606082015260800190565b6001600160a01b0385811682528416602082015260408101839052608060608201819052600090612d5190830184612601565b9695505050505050565b634e487b7160e01b600052603160045260246000fdfe3c73766720786d6c6e733d22687474703a2f2f7777772e77332e6f72672f323030302f73766722207072657365727665417370656374526174696f3d22784d696e594d696e206d656574222076696577426f783d223020302033353020333530223e3c7374796c653e2e62617365207b2066696c6c3a2077686974653b20666f6e742d66616d696c793a2073657269663b20666f6e742d73697a653a20313470783b207d3c2f7374796c653e3c726563742077696474683d223130302522206865696768743d2231303025222066696c6c3d22626c61636b22202f3e3c7465787420783d2231302220793d2232302220636c6173733d2262617365223e4142434445464748494a4b4c4d4e4f505152535455565758595a6162636465666768696a6b6c6d6e6f707172737475767778797a303132333435363738392b2fa2646970667358221220210fc4099d3df45cd45190f67cf063d872a1ce5b88059028856d39fa47fcc32c64736f6c634300080d0033",
  "linkReferences": {
    "@spanning/contracts/SpanningUtils.sol": {
      "SpanningAddress": [
        {
          "length": 20,
          "start": 269
        },
        {
          "length": 20,
          "start": 3359
        },
        {
          "length": 20,
          "start": 3613
        },
        {
          "length": 20,
          "start": 4424
        },
        {
          "length": 20,
          "start": 4625
        },
        {
          "length": 20,
          "start": 5024
        },
        {
          "length": 20,
          "start": 5457
        },
        {
          "length": 20,
          "start": 5817
        },
        {
          "length": 20,
          "start": 5948
        },
        {
          "length": 20,
          "start": 6046
        },
        {
          "length": 20,
          "start": 6324
        },
        {
          "length": 20,
          "start": 6573
        },
        {
          "length": 20,
          "start": 6834
        },
        {
          "length": 20,
          "start": 7014
        },
        {
          "length": 20,
          "start": 7241
        },
        {
          "length": 20,
          "start": 7572
        },
        {
          "length": 20,
          "start": 7778
        },
        {
          "length": 20,
          "start": 7976
        },
        {
          "length": 20,
          "start": 8567
        },
        {
          "length": 20,
          "start": 9666
        }
      ]
    }
  },
  "deployedLinkReferences": {
    "@spanning/contracts/SpanningUtils.sol": {
      "SpanningAddress": [
        {
          "length": 20,
          "start": 2355
        },
        {
          "length": 20,
          "start": 2609
        },
        {
          "length": 20,
          "start": 3420
        },
        {
          "length": 20,
          "start": 3621
        },
        {
          "length": 20,
          "start": 4020
        },
        {
          "length": 20,
          "start": 4453
        },
        {
          "length": 20,
          "start": 4813
        },
        {
          "length": 20,
          "start": 4944
        },
        {
          "length": 20,
          "start": 5042
        },
        {
          "length": 20,
          "start": 5320
        },
        {
          "length": 20,
          "start": 5569
        },
        {
          "length": 20,
          "start": 5830
        },
        {
          "length": 20,
          "start": 6010
        },
        {
          "length": 20,
          "start": 6237
        },
        {
          "length": 20,
          "start": 6568
        },
        {
          "length": 20,
          "start": 6774
        },
        {
          "length": 20,
          "start": 6972
        },
        {
          "length": 20,
          "start": 7563
        },
        {
          "length": 20,
          "start": 8662
        }
      ]
    }
  }
}