{
  "_format": "hh-sol-artifact-1",
  "contractName": "VanillaDNFTFactory",
  "sourceName": "contracts/VanillaDNFTFactory.sol",
  "abi": [
    {
      "inputs": [
        {
          "internalType": "address",
          "name": "SpanningLabDelegate_",
          "type": "address"
        }
      ],
      "stateMutability": "nonpayable",
      "type": "constructor"
    },
    {
      "anonymous": false,
      "inputs": [
        {
          "indexed": true,
          "internalType": "address",
          "name": "caller",
          "type": "address"
        }
      ],
      "name": "BurnAll",
      "type": "event"
    },
    {
      "anonymous": false,
      "inputs": [
        {
          "indexed": true,
          "internalType": "address",
          "name": "updater",
          "type": "address"
        },
        {
          "indexed": true,
          "internalType": "address",
          "name": "newDeployerAddress",
          "type": "address"
        }
      ],
      "name": "DNFTdeployerUpdated",
      "type": "event"
    },
    {
      "anonymous": false,
      "inputs": [
        {
          "indexed": false,
          "internalType": "address",
          "name": "dnft",
          "type": "address"
        }
      ],
      "name": "NewVDNFT",
      "type": "event"
    },
    {
      "anonymous": false,
      "inputs": [
        {
          "indexed": true,
          "internalType": "address",
          "name": "updater",
          "type": "address"
        },
        {
          "indexed": true,
          "internalType": "address",
          "name": "newDelegateAddress",
          "type": "address"
        }
      ],
      "name": "SpanningLabDelegateUpdated",
      "type": "event"
    },
    {
      "inputs": [],
      "name": "DNFTDeployerAddress",
      "outputs": [
        {
          "internalType": "address",
          "name": "",
          "type": "address"
        }
      ],
      "stateMutability": "view",
      "type": "function"
    },
    {
      "inputs": [],
      "name": "DNFTDeployerUpdater",
      "outputs": [
        {
          "internalType": "address",
          "name": "",
          "type": "address"
        }
      ],
      "stateMutability": "view",
      "type": "function"
    },
    {
      "inputs": [],
      "name": "SpanningLabDelegate",
      "outputs": [
        {
          "internalType": "address",
          "name": "",
          "type": "address"
        }
      ],
      "stateMutability": "view",
      "type": "function"
    },
    {
      "inputs": [
        {
          "internalType": "address",
          "name": "tokenAddress",
          "type": "address"
        },
        {
          "internalType": "uint256",
          "name": "tokenId",
          "type": "uint256"
        }
      ],
      "name": "createDerivativeContract",
      "outputs": [
        {
          "internalType": "address",
          "name": "contractAddress",
          "type": "address"
        }
      ],
      "stateMutability": "nonpayable",
      "type": "function"
    },
    {
      "inputs": [
        {
          "internalType": "uint256",
          "name": "",
          "type": "uint256"
        }
      ],
      "name": "deployedLicenseSC",
      "outputs": [
        {
          "internalType": "address",
          "name": "",
          "type": "address"
        }
      ],
      "stateMutability": "view",
      "type": "function"
    },
    {
      "inputs": [
        {
          "internalType": "address",
          "name": "originalNftOwner",
          "type": "address"
        }
      ],
      "name": "getAllMintedLicenses",
      "outputs": [
        {
          "components": [
            {
              "internalType": "address",
              "name": "contractAddress",
              "type": "address"
            },
            {
              "internalType": "uint256",
              "name": "tokenId",
              "type": "uint256"
            },
            {
              "internalType": "uint256",
              "name": "expTime",
              "type": "uint256"
            },
            {
              "internalType": "uint256",
              "name": "mintType",
              "type": "uint256"
            },
            {
              "internalType": "uint256",
              "name": "mintPrice",
              "type": "uint256"
            },
            {
              "internalType": "string",
              "name": "mediaUri",
              "type": "string"
            },
            {
              "internalType": "string",
              "name": "mintTypeName",
              "type": "string"
            },
            {
              "internalType": "uint256",
              "name": "createdAt",
              "type": "uint256"
            },
            {
              "internalType": "string",
              "name": "jsonDescription",
              "type": "string"
            }
          ],
          "internalType": "struct VanillaDerivativeNFT.TokenInfo[]",
          "name": "",
          "type": "tuple[]"
        }
      ],
      "stateMutability": "view",
      "type": "function"
    },
    {
      "inputs": [
        {
          "internalType": "address",
          "name": "",
          "type": "address"
        },
        {
          "internalType": "uint256",
          "name": "",
          "type": "uint256"
        }
      ],
      "name": "getContractAddress",
      "outputs": [
        {
          "internalType": "address",
          "name": "",
          "type": "address"
        }
      ],
      "stateMutability": "view",
      "type": "function"
    },
    {
      "inputs": [],
      "name": "getDeployedLicenseAddress",
      "outputs": [
        {
          "internalType": "address[]",
          "name": "",
          "type": "address[]"
        }
      ],
      "stateMutability": "view",
      "type": "function"
    },
    {
      "inputs": [],
      "name": "getOriginalNFTInfo",
      "outputs": [
        {
          "components": [
            {
              "internalType": "address",
              "name": "originalContractAddress",
              "type": "address"
            },
            {
              "internalType": "uint256",
              "name": "tokenId",
              "type": "uint256"
            },
            {
              "internalType": "address",
              "name": "derivativeContractAddress",
              "type": "address"
            }
          ],
          "internalType": "struct VanillaDNFTFactory.SoftStakeNFTInfo[]",
          "name": "",
          "type": "tuple[]"
        }
      ],
      "stateMutability": "view",
      "type": "function"
    },
    {
      "inputs": [
        {
          "internalType": "address",
          "name": "",
          "type": "address"
        }
      ],
      "name": "getSoftStakedTokenInfo",
      "outputs": [
        {
          "internalType": "address",
          "name": "originalContractAddress",
          "type": "address"
        },
        {
          "internalType": "uint256",
          "name": "tokenId",
          "type": "uint256"
        },
        {
          "internalType": "address",
          "name": "derivativeContractAddress",
          "type": "address"
        }
      ],
      "stateMutability": "view",
      "type": "function"
    },
    {
      "inputs": [
        {
          "internalType": "uint256",
          "name": "",
          "type": "uint256"
        }
      ],
      "name": "originalNFTInfoArray",
      "outputs": [
        {
          "internalType": "address",
          "name": "originalContractAddress",
          "type": "address"
        },
        {
          "internalType": "uint256",
          "name": "tokenId",
          "type": "uint256"
        },
        {
          "internalType": "address",
          "name": "derivativeContractAddress",
          "type": "address"
        }
      ],
      "stateMutability": "view",
      "type": "function"
    },
    {
      "inputs": [
        {
          "internalType": "address",
          "name": "newDNFTDeployer",
          "type": "address"
        }
      ],
      "name": "setDNFTDeployerAddress",
      "outputs": [],
      "stateMutability": "nonpayable",
      "type": "function"
    },
    {
      "inputs": [
        {
          "internalType": "address",
          "name": "newDeployerUpdater",
          "type": "address"
        }
      ],
      "name": "setNewDeployerUpdater",
      "outputs": [],
      "stateMutability": "nonpayable",
      "type": "function"
    },
    {
      "inputs": [
        {
          "internalType": "address",
          "name": "newDelegateAddress",
          "type": "address"
        }
      ],
      "name": "setNewSpanningLabDelegateAddress",
      "outputs": [],
      "stateMutability": "nonpayable",
      "type": "function"
    }
  ],
  "bytecode": "0x60a060405234801561001057600080fd5b5060405161147938038061147983398101604081905261002f91610066565b3060805260058054336001600160a01b031991821617909155600680549091166001600160a01b0392909216919091179055610096565b60006020828403121561007857600080fd5b81516001600160a01b038116811461008f57600080fd5b9392505050565b6080516113c86100b16000396000610d8b01526113c86000f3fe608060405234801561001057600080fd5b50600436106100ea5760003560e01c8063a2d733581161008c578063d49ffe9c11610066578063d49ffe9c14610225578063dd3b0d6d14610260578063eb793e0b14610273578063f7e99af51461028657600080fd5b8063a2d73358146101e8578063ab63f938146101fd578063aebdf5991461021057600080fd5b80636fc80c7b116100c85780636fc80c7b1461016557806379311b12146101a25780637c098cd6146101b557806397bfb964146101d557600080fd5b806331f5d17d146100ef5780633d97c0ca1461010457806351e8942114610152575b600080fd5b6101026100fd366004610dcf565b610299565b005b610135610112366004610df3565b60006020818152928152604080822090935290815220546001600160a01b031681565b6040516001600160a01b0390911681526020015b60405180910390f35b600554610135906001600160a01b031681565b610178610173366004610e1f565b6102ee565b604080516001600160a01b0394851681526020810193909352921691810191909152606001610149565b6101356101b0366004610df3565b61032c565b6101c86101c3366004610dcf565b6105d6565b6040516101499190610e94565b6101026101e3366004610dcf565b610b1c565b6101f0610bf9565b6040516101499190610f81565b61010261020b366004610dcf565b610c5b565b610218610cd1565b6040516101499190610fce565b610178610233366004610dcf565b60016020819052600091825260409091208054918101546002909101546001600160a01b03928316921683565b600454610135906001600160a01b031681565b600654610135906001600160a01b031681565b610135610294366004610e1f565b610d56565b6005546001600160a01b031633146102cc5760405162461bcd60e51b81526004016102c390611034565b60405180910390fd5b600580546001600160a01b0319166001600160a01b0392909216919091179055565b600281815481106102fe57600080fd5b60009182526020909120600390910201805460018201546002909201546001600160a01b0391821693501683565b6000610336610d80565b6001600160a01b03831661034957600080fd5b6001600160a01b0383811660009081526020818152604080832086845290915290205416156103aa5760405162461bcd60e51b815260206004820152600d60248201526c185b1c9958591e48195e1a5cdd609a1b60448201526064016102c3565b600480546006546040516304b80d4360e11b815230938101939093526001600160a01b03868116602485015260448401869052908116606484015216906309701a86906084016020604051808303816000875af115801561040f573d6000803e3d6000fd5b505050506040513d601f19601f820116820180604052508101906104339190611097565b6001600160a01b03848116600081815260208181526040808320888452825280832080546001600160a01b031990811688881690811790925560038054600181810183557fc2575a0e9e593c00f959f8c92f12db2869c3395a3b0502d05e2516446f71f85b90910180548416851790558451606080820187528982528188018e8152828801878152878b52848a52888b20935184548816908e1617845590518385015551600292830180548716918d16919091179055865190810187529889528887018d8152898701868152825493840183559190985297517f405787fa12a823e0f2b7631cc41b3ba8828b3321ca811111fa75cd3aa3bb5ace9190920290810180548416928a169290921790915594517f405787fa12a823e0f2b7631cc41b3ba8828b3321ca811111fa75cd3aa3bb5acf86015594517f405787fa12a823e0f2b7631cc41b3ba8828b3321ca811111fa75cd3aa3bb5ad090940180549095169390951692909217909255519182529192507fa7f1990abefa6decaff020680b82b4ffc81b7c936a090135699709191e2ee2d5910160405180910390a192915050565b60606000805b6003548110156107ed576000600382815481106105fb576105fb6110b4565b60009182526020808320909101546040805163442890d560e01b815290516001600160a01b039092169450849263442890d5926004808401938290030181865afa15801561064d573d6000803e3d6000fd5b505050506040513d601f19601f8201168201806040525081019061067191906110ca565b141580156107665750806001600160a01b031663442890d56040518163ffffffff1660e01b8152600401602060405180830381865afa1580156106b8573d6000803e3d6000fd5b505050506040513d601f19601f820116820180604052508101906106dc91906110ca565b6040516321f8a72160e01b8152600481019190915273__$7b4e2e76bef7af7428c2716434f5e70252$__906321f8a72190602401602060405180830381865af415801561072d573d6000803e3d6000fd5b505050506040513d601f19601f820116820180604052508101906107519190611097565b6001600160a01b0316856001600160a01b0316145b156107da57806001600160a01b03166372142b896040518163ffffffff1660e01b8152600401602060405180830381865afa1580156107a9573d6000803e3d6000fd5b505050506040513d601f19601f820116820180604052508101906107cd91906110ca565b6107d790846110f9565b92505b50806107e581611111565b9150506105dc565b5060008167ffffffffffffffff8111156108095761080961112a565b60405190808252806020026020018201604052801561089257816020015b61087f60405180610120016040528060006001600160a01b0316815260200160008152602001600081526020016000815260200160008152602001606081526020016060815260200160008152602001606081525090565b8152602001906001900390816108275790505b5090506000805b600354811015610b12576000600382815481106108b8576108b86110b4565b60009182526020808320909101546040805163442890d560e01b815290516001600160a01b039092169450849263442890d5926004808401938290030181865afa15801561090a573d6000803e3d6000fd5b505050506040513d601f19601f8201168201806040525081019061092e91906110ca565b14158015610a235750806001600160a01b031663442890d56040518163ffffffff1660e01b8152600401602060405180830381865afa158015610975573d6000803e3d6000fd5b505050506040513d601f19601f8201168201806040525081019061099991906110ca565b6040516321f8a72160e01b8152600481019190915273__$7b4e2e76bef7af7428c2716434f5e70252$__906321f8a72190602401602060405180830381865af41580156109ea573d6000803e3d6000fd5b505050506040513d601f19601f82011682018060405250810190610a0e9190611097565b6001600160a01b0316876001600160a01b0316145b15610aff576000816001600160a01b031663856070956040518163ffffffff1660e01b8152600401600060405180830381865afa158015610a68573d6000803e3d6000fd5b505050506040513d6000823e601f3d908101601f19168201604052610a909190810190611207565b905060005b8151811015610afc576000828281518110610ab257610ab26110b4565b6020026020010151905080878781518110610acf57610acf6110b4565b60200260200101819052508580610ae590611111565b965050508080610af490611111565b915050610a95565b50505b5080610b0a81611111565b915050610899565b5090949350505050565b6005546001600160a01b03163314610bad5760405162461bcd60e51b815260206004820152604860248201527f4f6e6c79207468652061737369676e656420757064617465722063616e20757060448201527f6461746520444e4654207370616e6e696e67206c61622064656c65676174652060648201526730b2323932b9b99760c11b608482015260a4016102c3565b600680546001600160a01b0319166001600160a01b03831690811790915560405133907f5c6ff688ed929a49e3041ff336568612282b6ce2a5cf82161ad6515bc9a9ccdb90600090a350565b60606003805480602002602001604051908101604052809291908181526020018280548015610c5157602002820191906000526020600020905b81546001600160a01b03168152600190910190602001808311610c33575b5050505050905090565b6005546001600160a01b03163314610c855760405162461bcd60e51b81526004016102c390611034565b600480546001600160a01b0319166001600160a01b03831690811790915560405133907f5056c5593a9e8adfdb2ffe165ba23c08ea7d925281fe4683f6a041b9055359e190600090a350565b60606002805480602002602001604051908101604052809291908181526020016000905b82821015610d4d576000848152602090819020604080516060810182526003860290920180546001600160a01b0390811684526001808301548587015260029092015416918301919091529083529092019101610cf5565b50505050905090565b60038181548110610d6657600080fd5b6000918252602090912001546001600160a01b0316905081565b306001600160a01b037f00000000000000000000000000000000000000000000000000000000000000001614610db557600080fd5b565b6001600160a01b0381168114610dcc57600080fd5b50565b600060208284031215610de157600080fd5b8135610dec81610db7565b9392505050565b60008060408385031215610e0657600080fd5b8235610e1181610db7565b946020939093013593505050565b600060208284031215610e3157600080fd5b5035919050565b60005b83811015610e53578181015183820152602001610e3b565b83811115610e62576000848401525b50505050565b60008151808452610e80816020860160208601610e38565b601f01601f19169290920160200192915050565b60006020808301818452808551808352604092508286019150828160051b87010184880160005b83811015610f7357888303603f19018552815180516001600160a01b0316845261012081890151858a01528782015188860152606080830151908601526080808301519086015260a080830151818701839052610f1a83880182610e68565b9250505060c08083015186830382880152610f358382610e68565b9250505060e08083015181870152506101008083015192508582038187015250610f5f8183610e68565b968901969450505090860190600101610ebb565b509098975050505050505050565b6020808252825182820181905260009190848201906040850190845b81811015610fc25783516001600160a01b031683529284019291840191600101610f9d565b50909695505050505050565b602080825282518282018190526000919060409081850190868401855b8281101561102757815180516001600160a01b039081168652878201518887015290860151168585015260609093019290850190600101610feb565b5091979650505050505050565b60208082526033908201527f4f6e6c79207468652061737369676e656420757064617465722063616e2075706040820152723230ba32902227232a102232b83637bcb2b91760691b606082015260800190565b805161109281610db7565b919050565b6000602082840312156110a957600080fd5b8151610dec81610db7565b634e487b7160e01b600052603260045260246000fd5b6000602082840312156110dc57600080fd5b5051919050565b634e487b7160e01b600052601160045260246000fd5b6000821982111561110c5761110c6110e3565b500190565b600060018201611123576111236110e3565b5060010190565b634e487b7160e01b600052604160045260246000fd5b604051610120810167ffffffffffffffff811182821017156111645761116461112a565b60405290565b604051601f8201601f1916810167ffffffffffffffff811182821017156111935761119361112a565b604052919050565b600082601f8301126111ac57600080fd5b815167ffffffffffffffff8111156111c6576111c661112a565b6111d9601f8201601f191660200161116a565b8181528460208386010111156111ee57600080fd5b6111ff826020830160208701610e38565b949350505050565b6000602080838503121561121a57600080fd5b825167ffffffffffffffff8082111561123257600080fd5b818501915085601f83011261124657600080fd5b8151818111156112585761125861112a565b8060051b61126785820161116a565b918252838101850191858101908984111561128157600080fd5b86860192505b838310156113855782518581111561129e57600080fd5b8601610120818c03601f19018113156112b657600080fd5b6112be611140565b6112c98a8401611087565b815260408301518a820152606083015160408201526080830151606082015260a0830151608082015260c0830151888111156113055760008081fd5b6113138e8c8387010161119b565b60a08301525060e0808401518981111561132d5760008081fd5b61133b8f8d8388010161119b565b60c084015250610100848101518284015292840151928984111561136157600091508182fd5b61136f8f8d8688010161119b565b9083015250845250509186019190860190611287565b999850505050505050505056fea2646970667358221220aa193fa4886e64e9b0132422cd02a1663dd94dbc53b252a993c445cd2013cef864736f6c634300080d0033",
  "linkReferences": {
    "@spanning/contracts/SpanningUtils.sol": {
      "SpanningAddress": [
        {
          "length": 20,
          "start": 1956
        },
        {
          "length": 20,
          "start": 2657
        }
      ]
    }
  },
  "deployedLinkReferences": {
    "@spanning/contracts/SpanningUtils.sol": {
      "SpanningAddress": [
        {
          "length": 20,
          "start": 1779
        },
        {
          "length": 20,
          "start": 2480
        }
      ]
    }
  }
}