{
  "_format": "hh-sol-artifact-1",
  "contractName": "BoundNFT",
  "sourceName": "contracts/BoundNFT.sol",
  "abi": [
    {
      "inputs": [
        {
          "internalType": "address",
          "name": "delegate",
          "type": "address"
        }
      ],
      "stateMutability": "nonpayable",
      "type": "constructor"
    },
    {
      "anonymous": false,
      "inputs": [
        {
          "indexed": true,
          "internalType": "address",
          "name": "owner",
          "type": "address"
        },
        {
          "indexed": true,
          "internalType": "address",
          "name": "approved",
          "type": "address"
        },
        {
          "indexed": true,
          "internalType": "uint256",
          "name": "tokenId",
          "type": "uint256"
        }
      ],
      "name": "Approval",
      "type": "event"
    },
    {
      "anonymous": false,
      "inputs": [
        {
          "indexed": true,
          "internalType": "address",
          "name": "owner",
          "type": "address"
        },
        {
          "indexed": true,
          "internalType": "address",
          "name": "operator",
          "type": "address"
        },
        {
          "indexed": false,
          "internalType": "bool",
          "name": "approved",
          "type": "bool"
        }
      ],
      "name": "ApprovalForAll",
      "type": "event"
    },
    {
      "anonymous": false,
      "inputs": [
        {
          "indexed": true,
          "internalType": "address",
          "name": "delegateLegacyAddress",
          "type": "address"
        },
        {
          "indexed": true,
          "internalType": "address",
          "name": "newDelegateLegacyAddress",
          "type": "address"
        }
      ],
      "name": "DelegateUpdated",
      "type": "event"
    },
    {
      "anonymous": false,
      "inputs": [
        {
          "indexed": true,
          "internalType": "bytes32",
          "name": "previousOwnerAddress",
          "type": "bytes32"
        },
        {
          "indexed": true,
          "internalType": "bytes32",
          "name": "newOwnerAddress",
          "type": "bytes32"
        }
      ],
      "name": "OwnershipTransferred",
      "type": "event"
    },
    {
      "anonymous": false,
      "inputs": [
        {
          "indexed": true,
          "internalType": "bytes32",
          "name": "senderAddress",
          "type": "bytes32"
        },
        {
          "indexed": true,
          "internalType": "bytes32",
          "name": "receiverAddress",
          "type": "bytes32"
        },
        {
          "indexed": true,
          "internalType": "uint256",
          "name": "tokenId",
          "type": "uint256"
        }
      ],
      "name": "SpanningApproval",
      "type": "event"
    },
    {
      "anonymous": false,
      "inputs": [
        {
          "indexed": true,
          "internalType": "bytes32",
          "name": "senderAddress",
          "type": "bytes32"
        },
        {
          "indexed": true,
          "internalType": "bytes32",
          "name": "receiverAddress",
          "type": "bytes32"
        },
        {
          "indexed": false,
          "internalType": "bool",
          "name": "approved",
          "type": "bool"
        }
      ],
      "name": "SpanningApprovalForAll",
      "type": "event"
    },
    {
      "anonymous": false,
      "inputs": [
        {
          "indexed": true,
          "internalType": "bytes32",
          "name": "senderAddress",
          "type": "bytes32"
        },
        {
          "indexed": true,
          "internalType": "bytes32",
          "name": "receiverAddress",
          "type": "bytes32"
        },
        {
          "indexed": true,
          "internalType": "uint256",
          "name": "tokenId",
          "type": "uint256"
        }
      ],
      "name": "SpanningTransfer",
      "type": "event"
    },
    {
      "anonymous": false,
      "inputs": [
        {
          "indexed": true,
          "internalType": "address",
          "name": "from",
          "type": "address"
        },
        {
          "indexed": true,
          "internalType": "address",
          "name": "to",
          "type": "address"
        },
        {
          "indexed": true,
          "internalType": "uint256",
          "name": "tokenId",
          "type": "uint256"
        }
      ],
      "name": "Transfer",
      "type": "event"
    },
    {
      "inputs": [
        {
          "internalType": "address",
          "name": "receiverLegacyAddress",
          "type": "address"
        },
        {
          "internalType": "uint256",
          "name": "tokenId",
          "type": "uint256"
        }
      ],
      "name": "approve",
      "outputs": [],
      "stateMutability": "nonpayable",
      "type": "function"
    },
    {
      "inputs": [
        {
          "internalType": "bytes32",
          "name": "receiverAddress",
          "type": "bytes32"
        },
        {
          "internalType": "uint256",
          "name": "tokenId",
          "type": "uint256"
        }
      ],
      "name": "approve",
      "outputs": [],
      "stateMutability": "nonpayable",
      "type": "function"
    },
    {
      "inputs": [
        {
          "internalType": "bytes32",
          "name": "accountAddress",
          "type": "bytes32"
        }
      ],
      "name": "balanceOf",
      "outputs": [
        {
          "internalType": "uint256",
          "name": "",
          "type": "uint256"
        }
      ],
      "stateMutability": "view",
      "type": "function"
    },
    {
      "inputs": [
        {
          "internalType": "address",
          "name": "accountLegacyAddress",
          "type": "address"
        }
      ],
      "name": "balanceOf",
      "outputs": [
        {
          "internalType": "uint256",
          "name": "",
          "type": "uint256"
        }
      ],
      "stateMutability": "view",
      "type": "function"
    },
    {
      "inputs": [],
      "name": "burn",
      "outputs": [
        {
          "internalType": "uint256",
          "name": "",
          "type": "uint256"
        }
      ],
      "stateMutability": "nonpayable",
      "type": "function"
    },
    {
      "inputs": [
        {
          "internalType": "uint256",
          "name": "tokenId",
          "type": "uint256"
        }
      ],
      "name": "getApproved",
      "outputs": [
        {
          "internalType": "address",
          "name": "",
          "type": "address"
        }
      ],
      "stateMutability": "view",
      "type": "function"
    },
    {
      "inputs": [
        {
          "internalType": "uint256",
          "name": "tokenId",
          "type": "uint256"
        }
      ],
      "name": "getApprovedSpanning",
      "outputs": [
        {
          "internalType": "bytes32",
          "name": "",
          "type": "bytes32"
        }
      ],
      "stateMutability": "view",
      "type": "function"
    },
    {
      "inputs": [
        {
          "internalType": "bytes32",
          "name": "senderAddress",
          "type": "bytes32"
        },
        {
          "internalType": "bytes32",
          "name": "receiverAddress",
          "type": "bytes32"
        }
      ],
      "name": "isApprovedForAll",
      "outputs": [
        {
          "internalType": "bool",
          "name": "",
          "type": "bool"
        }
      ],
      "stateMutability": "view",
      "type": "function"
    },
    {
      "inputs": [
        {
          "internalType": "address",
          "name": "senderLegacyAddress",
          "type": "address"
        },
        {
          "internalType": "address",
          "name": "receiverLegacyAddress",
          "type": "address"
        }
      ],
      "name": "isApprovedForAll",
      "outputs": [
        {
          "internalType": "bool",
          "name": "",
          "type": "bool"
        }
      ],
      "stateMutability": "view",
      "type": "function"
    },
    {
      "inputs": [],
      "name": "isSpanning",
      "outputs": [
        {
          "internalType": "bool",
          "name": "",
          "type": "bool"
        }
      ],
      "stateMutability": "pure",
      "type": "function"
    },
    {
      "inputs": [],
      "name": "isSpanningCall",
      "outputs": [
        {
          "internalType": "bool",
          "name": "",
          "type": "bool"
        }
      ],
      "stateMutability": "view",
      "type": "function"
    },
    {
      "inputs": [],
      "name": "name",
      "outputs": [
        {
          "internalType": "string",
          "name": "",
          "type": "string"
        }
      ],
      "stateMutability": "view",
      "type": "function"
    },
    {
      "inputs": [],
      "name": "owner",
      "outputs": [
        {
          "internalType": "bytes32",
          "name": "",
          "type": "bytes32"
        }
      ],
      "stateMutability": "view",
      "type": "function"
    },
    {
      "inputs": [
        {
          "internalType": "uint256",
          "name": "tokenId",
          "type": "uint256"
        }
      ],
      "name": "ownerOf",
      "outputs": [
        {
          "internalType": "address",
          "name": "",
          "type": "address"
        }
      ],
      "stateMutability": "view",
      "type": "function"
    },
    {
      "inputs": [
        {
          "internalType": "uint256",
          "name": "tokenId",
          "type": "uint256"
        }
      ],
      "name": "ownerOfSpanning",
      "outputs": [
        {
          "internalType": "bytes32",
          "name": "",
          "type": "bytes32"
        }
      ],
      "stateMutability": "view",
      "type": "function"
    },
    {
      "inputs": [],
      "name": "renounceOwnership",
      "outputs": [],
      "stateMutability": "nonpayable",
      "type": "function"
    },
    {
      "inputs": [
        {
          "internalType": "address",
          "name": "senderLegacyAddress",
          "type": "address"
        },
        {
          "internalType": "address",
          "name": "receiverLegacyAddress",
          "type": "address"
        },
        {
          "internalType": "uint256",
          "name": "tokenId",
          "type": "uint256"
        }
      ],
      "name": "safeTransferFrom",
      "outputs": [],
      "stateMutability": "nonpayable",
      "type": "function"
    },
    {
      "inputs": [
        {
          "internalType": "address",
          "name": "senderLegacyAddress",
          "type": "address"
        },
        {
          "internalType": "address",
          "name": "receiverLegacyAddress",
          "type": "address"
        },
        {
          "internalType": "uint256",
          "name": "tokenId",
          "type": "uint256"
        },
        {
          "internalType": "bytes",
          "name": "payload",
          "type": "bytes"
        }
      ],
      "name": "safeTransferFrom",
      "outputs": [],
      "stateMutability": "nonpayable",
      "type": "function"
    },
    {
      "inputs": [
        {
          "internalType": "bytes32",
          "name": "senderAddress",
          "type": "bytes32"
        },
        {
          "internalType": "bytes32",
          "name": "receiverAddress",
          "type": "bytes32"
        },
        {
          "internalType": "uint256",
          "name": "tokenId",
          "type": "uint256"
        }
      ],
      "name": "safeTransferFrom",
      "outputs": [],
      "stateMutability": "nonpayable",
      "type": "function"
    },
    {
      "inputs": [
        {
          "internalType": "bytes32",
          "name": "senderAddress",
          "type": "bytes32"
        },
        {
          "internalType": "bytes32",
          "name": "receiverAddress",
          "type": "bytes32"
        },
        {
          "internalType": "uint256",
          "name": "tokenId",
          "type": "uint256"
        },
        {
          "internalType": "bytes",
          "name": "payload",
          "type": "bytes"
        }
      ],
      "name": "safeTransferFrom",
      "outputs": [],
      "stateMutability": "nonpayable",
      "type": "function"
    },
    {
      "inputs": [
        {
          "internalType": "address",
          "name": "receiverLegacyAddress",
          "type": "address"
        },
        {
          "internalType": "bool",
          "name": "shouldApprove",
          "type": "bool"
        }
      ],
      "name": "setApprovalForAll",
      "outputs": [],
      "stateMutability": "nonpayable",
      "type": "function"
    },
    {
      "inputs": [
        {
          "internalType": "bytes32",
          "name": "receiverAddress",
          "type": "bytes32"
        },
        {
          "internalType": "bool",
          "name": "shouldApprove",
          "type": "bool"
        }
      ],
      "name": "setApprovalForAll",
      "outputs": [],
      "stateMutability": "nonpayable",
      "type": "function"
    },
    {
      "inputs": [
        {
          "internalType": "bytes4",
          "name": "interfaceId",
          "type": "bytes4"
        }
      ],
      "name": "supportsInterface",
      "outputs": [
        {
          "internalType": "bool",
          "name": "",
          "type": "bool"
        }
      ],
      "stateMutability": "view",
      "type": "function"
    },
    {
      "inputs": [],
      "name": "symbol",
      "outputs": [
        {
          "internalType": "string",
          "name": "",
          "type": "string"
        }
      ],
      "stateMutability": "view",
      "type": "function"
    },
    {
      "inputs": [
        {
          "internalType": "uint256",
          "name": "index",
          "type": "uint256"
        }
      ],
      "name": "tokenByIndex",
      "outputs": [
        {
          "internalType": "uint256",
          "name": "",
          "type": "uint256"
        }
      ],
      "stateMutability": "view",
      "type": "function"
    },
    {
      "inputs": [
        {
          "internalType": "address",
          "name": "owner",
          "type": "address"
        },
        {
          "internalType": "uint256",
          "name": "index",
          "type": "uint256"
        }
      ],
      "name": "tokenOfOwnerByIndex",
      "outputs": [
        {
          "internalType": "uint256",
          "name": "",
          "type": "uint256"
        }
      ],
      "stateMutability": "view",
      "type": "function"
    },
    {
      "inputs": [
        {
          "internalType": "bytes32",
          "name": "owner",
          "type": "bytes32"
        },
        {
          "internalType": "uint256",
          "name": "index",
          "type": "uint256"
        }
      ],
      "name": "tokenOfOwnerByIndex",
      "outputs": [
        {
          "internalType": "uint256",
          "name": "",
          "type": "uint256"
        }
      ],
      "stateMutability": "view",
      "type": "function"
    },
    {
      "inputs": [
        {
          "internalType": "uint256",
          "name": "tokenId",
          "type": "uint256"
        }
      ],
      "name": "tokenURI",
      "outputs": [
        {
          "internalType": "string",
          "name": "",
          "type": "string"
        }
      ],
      "stateMutability": "view",
      "type": "function"
    },
    {
      "inputs": [],
      "name": "totalSupply",
      "outputs": [
        {
          "internalType": "uint256",
          "name": "",
          "type": "uint256"
        }
      ],
      "stateMutability": "view",
      "type": "function"
    },
    {
      "inputs": [
        {
          "internalType": "address",
          "name": "senderLegacyAddress",
          "type": "address"
        },
        {
          "internalType": "address",
          "name": "receiverLegacyAddress",
          "type": "address"
        },
        {
          "internalType": "uint256",
          "name": "tokenId",
          "type": "uint256"
        }
      ],
      "name": "transferFrom",
      "outputs": [],
      "stateMutability": "nonpayable",
      "type": "function"
    },
    {
      "inputs": [
        {
          "internalType": "bytes32",
          "name": "senderAddress",
          "type": "bytes32"
        },
        {
          "internalType": "bytes32",
          "name": "receiverAddress",
          "type": "bytes32"
        },
        {
          "internalType": "uint256",
          "name": "tokenId",
          "type": "uint256"
        }
      ],
      "name": "transferFrom",
      "outputs": [],
      "stateMutability": "nonpayable",
      "type": "function"
    },
    {
      "inputs": [
        {
          "internalType": "bytes32",
          "name": "newOwnerAddress",
          "type": "bytes32"
        }
      ],
      "name": "transferOwnership",
      "outputs": [],
      "stateMutability": "nonpayable",
      "type": "function"
    },
    {
      "inputs": [
        {
          "internalType": "address",
          "name": "newDelegateLegacyAddress",
          "type": "address"
        }
      ],
      "name": "updateDelegate",
      "outputs": [],
      "stateMutability": "nonpayable",
      "type": "function"
    }
  ],
  "bytecode": "0x60806040523480156200001157600080fd5b506040516200305f3803806200305f833981016040819052620000349162000cf5565b604080518082018252600d81526c15195cdd08109bdd5b99139195609a1b602080830191909152825180840190935260048352631093919560e21b90830152600080546001600160a01b0385166001600160a01b03199182168117909255600180549091169091179055908280620000b6620000b03362000109565b620001a9565b508251620000cc90600390602086019062000c4f565b508151620000e290600490602085019062000c4f565b5050505062000102620000fa620001e260201b60201c565b60006200035b565b5062000e3d565b600073__$7b4e2e76bef7af7428c2716434f5e70252$__63bdb409df83620001306200069c565b6040516001600160e01b031960e085901b811682526001600160a01b03909316600482015291166024820152604401602060405180830381865af41580156200017d573d6000803e3d6000fd5b505050506040513d601f19601f82011682018060405250810190620001a3919062000d20565b92915050565b6002805490829055604051829082907fcbbb77f62b929125ef27b63e21aa7682e6a2cb1f238a0c221931211b4d1913eb90600090a35050565b600154604080516365ab1b7360e01b815290516000926001600160a01b0316916365ab1b739160048083019260209291908290030181865afa1580156200022d573d6000803e3d6000fd5b505050506040513d601f19601f8201168201806040525081019062000253919062000d20565b6040516367348afd60e11b8152600481019190915273__$7b4e2e76bef7af7428c2716434f5e70252$__9063ce6915fa90602401602060405180830381865af4158015620002a5573d6000803e3d6000fd5b505050506040513d601f19601f82011682018060405250810190620002cb919062000d3a565b156200035057600160009054906101000a90046001600160a01b03166001600160a01b03166365ab1b736040518163ffffffff1660e01b8152600401602060405180830381865afa15801562000325573d6000803e3d6000fd5b505050506040513d601f19601f820116820180604052508101906200034b919062000d20565b905090565b6200034b3362000109565b6040516367348afd60e11b81526004810183905273__$7b4e2e76bef7af7428c2716434f5e70252$__9063ce6915fa90602401602060405180830381865af4158015620003ac573d6000803e3d6000fd5b505050506040513d601f19601f82011682018060405250810190620003d2919062000d3a565b620004245760405162461bcd60e51b815260206004820181905260248201527f4552433732313a206d696e7420746f20746865207a65726f206164647265737360448201526064015b60405180910390fd5b6200042f816200070d565b156200047e5760405162461bcd60e51b815260206004820152601c60248201527f4552433732313a20746f6b656e20616c7265616479206d696e7465640000000060448201526064016200041b565b620004fa73__$7b4e2e76bef7af7428c2716434f5e70252$__63cbdd34cf6040518163ffffffff1660e01b8152600401602060405180830381865af4158015620004cc573d6000803e3d6000fd5b505050506040513d601f19601f82011682018060405250810190620004f2919062000d20565b838362000794565b60008281526006602052604081208054600192906200051b90849062000d74565b92505081905550816005600083815260200190815260200160002081905550808273__$7b4e2e76bef7af7428c2716434f5e70252$__63cbdd34cf6040518163ffffffff1660e01b8152600401602060405180830381865af415801562000586573d6000803e3d6000fd5b505050506040513d601f19601f82011682018060405250810190620005ac919062000d20565b6040517f6f533d76415d3d59b93bb3078196c9bd3497fd84281fb4bfbe9c0d9cd547a61190600090a480620005e1836200083f565b6001600160a01b031660006001600160a01b03167fddf252ad1be2c89b69c2b068fc378daa952ba7f163c4a11628f55a4df523b3ef60405160405180910390a46200069873__$7b4e2e76bef7af7428c2716434f5e70252$__63cbdd34cf6040518163ffffffff1660e01b8152600401602060405180830381865af41580156200066f573d6000803e3d6000fd5b505050506040513d601f19601f8201168201806040525081019062000695919062000d20565b50565b5050565b6001546040805163b68d180960e01b815290516000926001600160a01b03169163b68d18099160048083019260209291908290030181865afa158015620006e7573d6000803e3d6000fd5b505050506040513d601f19601f820116820180604052508101906200034b919062000d8f565b6000818152600560205260408082205490516367348afd60e11b8152600481019190915273__$7b4e2e76bef7af7428c2716434f5e70252$__9063ce6915fa90602401602060405180830381865af41580156200076e573d6000803e3d6000fd5b505050506040513d601f19601f82011682018060405250810190620001a3919062000d3a565b620007ac8383836200082660201b620005fc1760201c565b826200080157620007fb81600b80546000838152600c60205260408120829055600182018355919091527f0175b7a638427703f0dbe7bb9bbf987a2551717b34e79f33b5b1008d1fa01db90155565b62000815565b8183146200081557620008158382620009c8565b816200082b57620008268162000a61565b505050565b828214620008265762000826828262000b1b565b6001546040805163b68d180960e01b8152905160009283926001600160a01b039091169163b68d1809916004808201926020929091908290030181865afa1580156200088f573d6000803e3d6000fd5b505050506040513d601f19601f82011682018060405250810190620008b5919062000d8f565b604051631a24254760e01b8152600481018590526001600160e01b0319919091169073__$7b4e2e76bef7af7428c2716434f5e70252$__90631a24254790602401602060405180830381865af415801562000914573d6000803e3d6000fd5b505050506040513d601f19601f820116820180604052508101906200093a919062000d8f565b6001600160e01b03191603620001a3576040516321f8a72160e01b81526004810184905273__$7b4e2e76bef7af7428c2716434f5e70252$__906321f8a72190602401602060405180830381865af41580156200099b573d6000803e3d6000fd5b505050506040513d601f19601f82011682018060405250810190620009c1919062000cf5565b9392505050565b60006001620009e28462000b5e60201b620008651760201c565b620009ee919062000dbb565b6000838152600a602052604090205490915080821462000a385760008481526009602090815260408083208584528252808320548484528184208190558352600a90915290208190555b506000918252600a60209081526040808420849055938352600981528383209183525290812055565b600b5460009062000a759060019062000dbb565b6000838152600c6020526040812054600b805493945090928490811062000aa05762000aa062000dd5565b9060005260206000200154905080600b838154811062000ac45762000ac462000dd5565b6000918252602080832090910192909255828152600c9091526040808220849055858252812055600b80548062000aff5762000aff62000deb565b6001900381819060005260206000200160009055905550505050565b600062000b338362000b5e60201b620008651760201c565b60009384526009602090815260408086208387528252808620859055938552600a9052919092205550565b6040516367348afd60e11b81526004810182905260009073__$7b4e2e76bef7af7428c2716434f5e70252$__9063ce6915fa90602401602060405180830381865af415801562000bb2573d6000803e3d6000fd5b505050506040513d601f19601f8201168201806040525081019062000bd8919062000d3a565b62000c3c5760405162461bcd60e51b815260206004820152602d60248201527f4552433732313a2062616c616e636520717565727920666f722074686520696e60448201526c76616c6964206164647265737360981b60648201526084016200041b565b5060009081526006602052604090205490565b82805462000c5d9062000e01565b90600052602060002090601f01602090048101928262000c81576000855562000ccc565b82601f1062000c9c57805160ff191683800117855562000ccc565b8280016001018555821562000ccc579182015b8281111562000ccc57825182559160200191906001019062000caf565b5062000cda92915062000cde565b5090565b5b8082111562000cda576000815560010162000cdf565b60006020828403121562000d0857600080fd5b81516001600160a01b0381168114620009c157600080fd5b60006020828403121562000d3357600080fd5b5051919050565b60006020828403121562000d4d57600080fd5b81518015158114620009c157600080fd5b634e487b7160e01b600052601160045260246000fd5b6000821982111562000d8a5762000d8a62000d5e565b500190565b60006020828403121562000da257600080fd5b81516001600160e01b031981168114620009c157600080fd5b60008282101562000dd05762000dd062000d5e565b500390565b634e487b7160e01b600052603260045260246000fd5b634e487b7160e01b600052603160045260246000fd5b600181811c9082168062000e1657607f821691505b60208210810362000e3757634e487b7160e01b600052602260045260246000fd5b50919050565b6122128062000e4d6000396000f3fe608060405234801561001057600080fd5b50600436106101fb5760003560e01c806370a082311161011a578063c1e74ead116100ad578063e985e9c51161007c578063e985e9c51461041c578063f659592b1461042f578063f807e3da14610442578063fb7a529b14610455578063fe3f9b0e1461046857600080fd5b8063c1e74ead146103d0578063c87b56dd146103e3578063c8b36087146103f6578063d614b7121461040957600080fd5b806395d89b41116100e957806395d89b4114610374578063a02515bf1461037c578063a22cb465146103aa578063b88d4fde146103bd57600080fd5b806370a082311461033e578063715018a61461035157806379264599146103595780638da5cb5b1461036c57600080fd5b80632fb840f51161019257806347e1ca9c1161016157806347e1ca9c146102fe5780634f6ccce7146103055780636352211e146103185780636c7f15421461032b57600080fd5b80632fb840f5146102bd57806342842e0e146102d057806344df8e70146102e357806347144421146102eb57600080fd5b806318160ddd116101ce57806318160ddd1461027d57806323b872dd1461028f5780632f745c59146102a25780632f8a37a8146102b557600080fd5b806301ffc9a71461020057806306fdde0314610228578063081812fc1461023d578063095ea7b314610268575b600080fd5b61021361020e366004611bfa565b61047b565b60405190151581526020015b60405180910390f35b6102306104a6565b60405161021f9190611c64565b61025061024b366004611c77565b610538565b6040516001600160a01b03909116815260200161021f565b61027b610276366004611ca5565b6105e5565b005b600b545b60405190815260200161021f565b61027b61029d366004611cd1565b610601565b6102816102b0366004611ca5565b61062d565b610213610684565b61027b6102cb366004611d12565b6106a8565b61027b6102de366004611cd1565b6106e7565b61028161071c565b61027b6102f9366004611d3e565b61072e565b6001610213565b610281610313366004611c77565b6107c6565b610250610326366004611c77565b610859565b610281610339366004611c77565b610865565b61028161034c366004611d60565b610951565b61027b61096f565b610281610367366004611d3e565b610a23565b600254610281565b610230610a6a565b61021361038a366004611d3e565b600091825260086020908152604080842092845291905290205460ff1690565b61027b6103b8366004611d8b565b610a79565b61027b6103cb366004611e67565b610a90565b61027b6103de366004611ed3565b610abe565b6102306103f1366004611c77565b610acc565b61027b610404366004611d12565b610aed565b61027b610417366004611ef8565b610b04565b61021361042a366004611f3a565b610b38565b61028161043d366004611c77565b610b77565b61027b610450366004611c77565b610c58565b610281610463366004611c77565b610d68565b61027b610476366004611d60565b610de7565b60006001600160e01b03198216637926459960e01b14806104a057506104a082610f3c565b92915050565b6060600380546104b590611f68565b80601f01602080910402602001604051908101604052809291908181526020018280546104e190611f68565b801561052e5780601f106105035761010080835404028352916020019161052e565b820191906000526020600020905b81548152906001019060200180831161051157829003601f168201915b5050505050905090565b60008061054483610d68565b9050600061055182610f8c565b905061055b611003565b6001600160e01b03198281169116146105d45760405162461bcd60e51b815260206004820152603060248201527f4552433732313a2072656d6f7465206163636f756e742072657175657374696e60448201526f67206c6567616379206164647265737360801b60648201526084015b60405180910390fd5b6105dd82611076565b949350505050565b60006105f0836111ee565b90506105fc818361072e565b505050565b600061060c846111ee565b90506000610619846111ee565b90506106268282856106a8565b5050505050565b600080610639846111ee565b905061064481610865565b83106106625760405162461bcd60e51b81526004016105cb90611fa2565b6000908152600960209081526040808320858452909152902054905092915050565b6000336106996000546001600160a01b031690565b6001600160a01b031614905090565b806106ba6106b4611283565b826113eb565b6106d65760405162461bcd60e51b81526004016105cb90611fed565b6106e18484846114a4565b50505050565b60006106f2846111ee565b905060006106ff846111ee565b905061062682828560405180602001604052806000815250610b04565b600061072860006114e5565b50600090565b8061073a6106b4611283565b6107565760405162461bcd60e51b81526004016105cb90611fed565b600061076183610b77565b90508084036107bc5760405162461bcd60e51b815260206004820152602160248201527f4552433732313a20617070726f76616c20746f2063757272656e74206f776e656044820152603960f91b60648201526084016105cb565b6106e18484611767565b60006107d1600b5490565b82106108345760405162461bcd60e51b815260206004820152602c60248201527f455243373231456e756d657261626c653a20676c6f62616c20696e646578206f60448201526b7574206f6620626f756e647360a01b60648201526084016105cb565b600b828154811061084757610847612024565b90600052602060002001549050919050565b60008061054483610b77565b6040516367348afd60e11b81526004810182905260009073__$7b4e2e76bef7af7428c2716434f5e70252$__9063ce6915fa90602401602060405180830381865af41580156108b8573d6000803e3d6000fd5b505050506040513d601f19601f820116820180604052508101906108dc919061203a565b61093e5760405162461bcd60e51b815260206004820152602d60248201527f4552433732313a2062616c616e636520717565727920666f722074686520696e60448201526c76616c6964206164647265737360981b60648201526084016105cb565b5060009081526006602052604090205490565b60008061095d836111ee565b905061096881610865565b9392505050565b610977611283565b60025473__$7b4e2e76bef7af7428c2716434f5e70252$__916320845949916040516001600160e01b031960e085901b16815260048101929092526024820152604401602060405180830381865af41580156109d7573d6000803e3d6000fd5b505050506040513d601f19601f820116820180604052508101906109fb919061203a565b610a175760405162461bcd60e51b81526004016105cb90612057565b610a2160006117a8565b565b6000610a2e83610865565b8210610a4c5760405162461bcd60e51b81526004016105cb90611fa2565b50600091825260096020908152604080842092845291905290205490565b6060600480546104b590611f68565b6000610a84836111ee565b90506105fc8183610abe565b6000610a9b856111ee565b90506000610aa8856111ee565b9050610ab682828686610b04565b505050505050565b610ac88282611767565b5050565b60606040518060600160405280603b81526020016121a2603b913992915050565b6105fc838383604051806020016040528060008152505b81610b106106b4611283565b610b2c5760405162461bcd60e51b81526004016105cb90611fed565b610626858585856117e1565b600080610b44846111ee565b90506000610b51846111ee565b60009283526008602090815260408085209285529190529091205460ff16949350505050565b6000818152600560205260408082205490516367348afd60e11b81526004810182905273__$7b4e2e76bef7af7428c2716434f5e70252$__9063ce6915fa90602401602060405180830381865af4158015610bd6573d6000803e3d6000fd5b505050506040513d601f19601f82011682018060405250810190610bfa919061203a565b6104a05760405162461bcd60e51b815260206004820152602960248201527f4552433732313a206f776e657220717565727920666f72206e6f6e657869737460448201526832b73a103a37b5b2b760b91b60648201526084016105cb565b610c60611283565b60025473__$7b4e2e76bef7af7428c2716434f5e70252$__916320845949916040516001600160e01b031960e085901b16815260048101929092526024820152604401602060405180830381865af4158015610cc0573d6000803e3d6000fd5b505050506040513d601f19601f82011682018060405250810190610ce4919061203a565b610d005760405162461bcd60e51b81526004016105cb90612057565b80610d5c5760405162461bcd60e51b815260206004820152602660248201527f4f776e61626c653a206e6577206f776e657220697320746865207a65726f206160448201526564647265737360d01b60648201526084016105cb565b610d65816117a8565b50565b6000610d7382611814565b610dd45760405162461bcd60e51b815260206004820152602c60248201527f4552433732313a20617070726f76656420717565727920666f72206e6f6e657860448201526b34b9ba32b73a103a37b5b2b760a11b60648201526084016105cb565b5060009081526007602052604090205490565b610def611283565b60025473__$7b4e2e76bef7af7428c2716434f5e70252$__916320845949916040516001600160e01b031960e085901b16815260048101929092526024820152604401602060405180830381865af4158015610e4f573d6000803e3d6000fd5b505050506040513d601f19601f82011682018060405250810190610e73919061203a565b610e8f5760405162461bcd60e51b81526004016105cb90612057565b6001600160a01b038116610ed75760405162461bcd60e51b815260206004820152600f60248201526e496e76616c6964204164647265737360881b60448201526064016105cb565b600080546040516001600160a01b03808516939216917f305bf06329ff886b42ab3ed2979092b17d3a7fc67e7de42ee393a24c8e39fee791a3600080546001600160a01b039092166001600160a01b0319928316811790915560018054909216179055565b60006001600160e01b031982166380ac58cd60e01b1480610f6d57506001600160e01b03198216635b5e139f60e01b145b806104a057506301ffc9a760e01b6001600160e01b03198316146104a0565b604051631a24254760e01b81526004810182905260009073__$7b4e2e76bef7af7428c2716434f5e70252$__90631a24254790602401602060405180830381865af4158015610fdf573d6000803e3d6000fd5b505050506040513d601f19601f820116820180604052508101906104a09190612084565b6001546040805163b68d180960e01b815290516000926001600160a01b03169163b68d18099160048083019260209291908290030181865afa15801561104d573d6000803e3d6000fd5b505050506040513d601f19601f820116820180604052508101906110719190612084565b905090565b6001546040805163b68d180960e01b8152905160009283926001600160a01b039091169163b68d1809916004808201926020929091908290030181865afa1580156110c5573d6000803e3d6000fd5b505050506040513d601f19601f820116820180604052508101906110e99190612084565b604051631a24254760e01b8152600481018590526001600160e01b0319919091169073__$7b4e2e76bef7af7428c2716434f5e70252$__90631a24254790602401602060405180830381865af4158015611147573d6000803e3d6000fd5b505050506040513d601f19601f8201168201806040525081019061116b9190612084565b6001600160e01b031916036104a0576040516321f8a72160e01b81526004810184905273__$7b4e2e76bef7af7428c2716434f5e70252$__906321f8a72190602401602060405180830381865af41580156111ca573d6000803e3d6000fd5b505050506040513d601f19601f8201168201806040525081019061096891906120a1565b600073__$7b4e2e76bef7af7428c2716434f5e70252$__63bdb409df83611213611003565b6040516001600160e01b031960e085901b811682526001600160a01b03909316600482015291166024820152604401602060405180830381865af415801561125f573d6000803e3d6000fd5b505050506040513d601f19601f820116820180604052508101906104a091906120be565b600154604080516365ab1b7360e01b815290516000926001600160a01b0316916365ab1b739160048083019260209291908290030181865afa1580156112cd573d6000803e3d6000fd5b505050506040513d601f19601f820116820180604052508101906112f191906120be565b6040516367348afd60e11b8152600481019190915273__$7b4e2e76bef7af7428c2716434f5e70252$__9063ce6915fa90602401602060405180830381865af4158015611342573d6000803e3d6000fd5b505050506040513d601f19601f82011682018060405250810190611366919061203a565b156113e257600160009054906101000a90046001600160a01b03166001600160a01b03166365ab1b736040518163ffffffff1660e01b8152600401602060405180830381865afa1580156113be573d6000803e3d6000fd5b505050506040513d601f19601f8201168201806040525081019061107191906120be565b611071336111ee565b60006113f682611814565b6114575760405162461bcd60e51b815260206004820152602c60248201527f4552433732313a206f70657261746f7220717565727920666f72206e6f6e657860448201526b34b9ba32b73a103a37b5b2b760a11b60648201526084016105cb565b600061146283610b77565b90508084148061148b5750600081815260086020908152604080832087845290915290205460ff165b806105dd57508361149b84610d68565b14949350505050565b60405162461bcd60e51b81526020600482015260166024820152751514905394d1915497d393d517d4d5541413d495115160521b60448201526064016105cb565b60006114f082610b77565b90506115698173__$7b4e2e76bef7af7428c2716434f5e70252$__63cbdd34cf6040518163ffffffff1660e01b8152600401602060405180830381865af415801561153f573d6000803e3d6000fd5b505050506040513d601f19601f8201168201806040525081019061156391906120be565b84611898565b6115df73__$7b4e2e76bef7af7428c2716434f5e70252$__63cbdd34cf6040518163ffffffff1660e01b8152600401602060405180830381865af41580156115b5573d6000803e3d6000fd5b505050506040513d601f19601f820116820180604052508101906115d991906120be565b83611767565b60008181526006602052604081208054600192906115fe9084906120d7565b9250508190555060056000838152602001908152602001600020600090558173__$7b4e2e76bef7af7428c2716434f5e70252$__63cbdd34cf6040518163ffffffff1660e01b8152600401602060405180830381865af4158015611666573d6000803e3d6000fd5b505050506040513d601f19601f8201168201806040525081019061168a91906120be565b60405183907f6f533d76415d3d59b93bb3078196c9bd3497fd84281fb4bfbe9c0d9cd547a61190600090a48160006116c183611076565b6001600160a01b03167fddf252ad1be2c89b69c2b068fc378daa952ba7f163c4a11628f55a4df523b3ef60405160405180910390a4610ac88173__$7b4e2e76bef7af7428c2716434f5e70252$__63cbdd34cf6040518163ffffffff1660e01b8152600401602060405180830381865af4158015611743573d6000803e3d6000fd5b505050506040513d601f19601f82011682018060405250810190610ac891906120be565b60405162461bcd60e51b81526020600482015260166024820152751054141493d5905317d393d517d4d5541413d495115160521b60448201526064016105cb565b6002805490829055604051829082907fcbbb77f62b929125ef27b63e21aa7682e6a2cb1f238a0c221931211b4d1913eb90600090a35050565b6117ec8484846114a4565b6117f88484848461191a565b6106e15760405162461bcd60e51b81526004016105cb906120fc565b6000818152600560205260408082205490516367348afd60e11b8152600481019190915273__$7b4e2e76bef7af7428c2716434f5e70252$__9063ce6915fa90602401602060405180830381865af4158015611874573d6000803e3d6000fd5b505050506040513d601f19601f820116820180604052508101906104a0919061203a565b826118ea576118e581600b80546000838152600c60205260408120829055600182018355919091527f0175b7a638427703f0dbe7bb9bbf987a2551717b34e79f33b5b1008d1fa01db90155565b6118fb565b8183146118fb576118fb8382611a76565b81611909576105fc81611aff565b8282146105fc576105fc8282611bae565b60008061192686611076565b9050600061193386611076565b90506001600160a01b0381163b151580156119705750611951611003565b6001600160e01b03191661196487610f8c565b6001600160e01b031916145b15611a6b57806001600160a01b031663150b7a0261199461198f611283565b611076565b8488886040518563ffffffff1660e01b81526004016119b6949392919061214e565b6020604051808303816000875af19250505080156119f1575060408051601f3d908101601f191682019092526119ee91810190612084565b60015b611a4e573d808015611a1f576040519150601f19603f3d011682016040523d82523d6000602084013e611a24565b606091505b508051600003611a465760405162461bcd60e51b81526004016105cb906120fc565b805181602001fd5b6001600160e01b031916630a85bd0160e11b1492506105dd915050565b6001925050506105dd565b60006001611a8384610865565b611a8d91906120d7565b6000838152600a6020526040902054909150808214611ad65760008481526009602090815260408083208584528252808320548484528184208190558352600a90915290208190555b506000918252600a60209081526040808420849055938352600981528383209183525290812055565b600b54600090611b11906001906120d7565b6000838152600c6020526040812054600b8054939450909284908110611b3957611b39612024565b9060005260206000200154905080600b8381548110611b5a57611b5a612024565b6000918252602080832090910192909255828152600c9091526040808220849055858252812055600b805480611b9257611b9261218b565b6001900381819060005260206000200160009055905550505050565b6000611bb983610865565b60009384526009602090815260408086208387528252808620859055938552600a9052919092205550565b6001600160e01b031981168114610d6557600080fd5b600060208284031215611c0c57600080fd5b813561096881611be4565b6000815180845260005b81811015611c3d57602081850181015186830182015201611c21565b81811115611c4f576000602083870101525b50601f01601f19169290920160200192915050565b6020815260006109686020830184611c17565b600060208284031215611c8957600080fd5b5035919050565b6001600160a01b0381168114610d6557600080fd5b60008060408385031215611cb857600080fd5b8235611cc381611c90565b946020939093013593505050565b600080600060608486031215611ce657600080fd5b8335611cf181611c90565b92506020840135611d0181611c90565b929592945050506040919091013590565b600080600060608486031215611d2757600080fd5b505081359360208301359350604090920135919050565b60008060408385031215611d5157600080fd5b50508035926020909101359150565b600060208284031215611d7257600080fd5b813561096881611c90565b8015158114610d6557600080fd5b60008060408385031215611d9e57600080fd5b8235611da981611c90565b91506020830135611db981611d7d565b809150509250929050565b634e487b7160e01b600052604160045260246000fd5b600082601f830112611deb57600080fd5b813567ffffffffffffffff80821115611e0657611e06611dc4565b604051601f8301601f19908116603f01168101908282118183101715611e2e57611e2e611dc4565b81604052838152866020858801011115611e4757600080fd5b836020870160208301376000602085830101528094505050505092915050565b60008060008060808587031215611e7d57600080fd5b8435611e8881611c90565b93506020850135611e9881611c90565b925060408501359150606085013567ffffffffffffffff811115611ebb57600080fd5b611ec787828801611dda565b91505092959194509250565b60008060408385031215611ee657600080fd5b823591506020830135611db981611d7d565b60008060008060808587031215611f0e57600080fd5b843593506020850135925060408501359150606085013567ffffffffffffffff811115611ebb57600080fd5b60008060408385031215611f4d57600080fd5b8235611f5881611c90565b91506020830135611db981611c90565b600181811c90821680611f7c57607f821691505b602082108103611f9c57634e487b7160e01b600052602260045260246000fd5b50919050565b6020808252602b908201527f455243373231456e756d657261626c653a206f776e657220696e646578206f7560408201526a74206f6620626f756e647360a81b606082015260800190565b6020808252601d908201527f6f6e6c794f776e65724f72417070726f7665643a2062616420726f6c65000000604082015260600190565b634e487b7160e01b600052603260045260246000fd5b60006020828403121561204c57600080fd5b815161096881611d7d565b6020808252601390820152726f6e6c794f776e65723a2062616420726f6c6560681b604082015260600190565b60006020828403121561209657600080fd5b815161096881611be4565b6000602082840312156120b357600080fd5b815161096881611c90565b6000602082840312156120d057600080fd5b5051919050565b6000828210156120f757634e487b7160e01b600052601160045260246000fd5b500390565b60208082526032908201527f4552433732313a207472616e7366657220746f206e6f6e20455243373231526560408201527131b2b4bb32b91034b6b83632b6b2b73a32b960711b606082015260800190565b6001600160a01b038581168252841660208201526040810183905260806060820181905260009061218190830184611c17565b9695505050505050565b634e487b7160e01b600052603160045260246000fdfe27697066733a2f2f516d65536a53696e4870506e6d586d73704d6a776958794e367a533445397a63636172694752336a7863615774712f31303027a26469706673582212203fc5f155130653b6f5fc735019742d7d4cd6de8e7983dff839cb301f316c191164736f6c634300080d0033",
  "linkReferences": {
    "@spanning/contracts/SpanningUtils.sol": {
      "SpanningAddress": [
        {
          "length": 20,
          "start": 269
        },
        {
          "length": 20,
          "start": 618
        },
        {
          "length": 20,
          "start": 881
        },
        {
          "length": 20,
          "start": 1156
        },
        {
          "length": 20,
          "start": 1342
        },
        {
          "length": 20,
          "start": 1575
        },
        {
          "length": 20,
          "start": 1843
        },
        {
          "length": 20,
          "start": 2265
        },
        {
          "length": 20,
          "start": 2400
        },
        {
          "length": 20,
          "start": 2935
        },
        {
          "length": 20,
          "start": 5835
        },
        {
          "length": 20,
          "start": 6089
        },
        {
          "length": 20,
          "start": 6633
        },
        {
          "length": 20,
          "start": 6834
        },
        {
          "length": 20,
          "start": 7233
        },
        {
          "length": 20,
          "start": 7666
        },
        {
          "length": 20,
          "start": 8026
        },
        {
          "length": 20,
          "start": 8157
        },
        {
          "length": 20,
          "start": 8255
        },
        {
          "length": 20,
          "start": 8533
        },
        {
          "length": 20,
          "start": 9029
        },
        {
          "length": 20,
          "start": 9147
        },
        {
          "length": 20,
          "start": 9324
        },
        {
          "length": 20,
          "start": 9545
        },
        {
          "length": 20,
          "start": 9863
        }
      ]
    }
  },
  "deployedLinkReferences": {
    "@spanning/contracts/SpanningUtils.sol": {
      "SpanningAddress": [
        {
          "length": 20,
          "start": 2174
        },
        {
          "length": 20,
          "start": 2428
        },
        {
          "length": 20,
          "start": 2972
        },
        {
          "length": 20,
          "start": 3173
        },
        {
          "length": 20,
          "start": 3572
        },
        {
          "length": 20,
          "start": 4005
        },
        {
          "length": 20,
          "start": 4365
        },
        {
          "length": 20,
          "start": 4496
        },
        {
          "length": 20,
          "start": 4594
        },
        {
          "length": 20,
          "start": 4872
        },
        {
          "length": 20,
          "start": 5368
        },
        {
          "length": 20,
          "start": 5486
        },
        {
          "length": 20,
          "start": 5663
        },
        {
          "length": 20,
          "start": 5884
        },
        {
          "length": 20,
          "start": 6202
        }
      ]
    }
  }
}