{
  "_format": "hh-sol-artifact-1",
  "contractName": "TestToken",
  "sourceName": "contracts/Token.sol",
  "abi": [
    {
      "inputs": [
        {
          "internalType": "address",
          "name": "",
          "type": "address"
        },
        {
          "internalType": "address",
          "name": "",
          "type": "address"
        }
      ],
      "name": "allowance",
      "outputs": [
        {
          "internalType": "uint256",
          "name": "",
          "type": "uint256"
        }
      ],
      "stateMutability": "view",
      "type": "function"
    },
    {
      "inputs": [
        {
          "internalType": "address",
          "name": "spender",
          "type": "address"
        },
        {
          "internalType": "uint256",
          "name": "amount",
          "type": "uint256"
        }
      ],
      "name": "approve",
      "outputs": [],
      "stateMutability": "nonpayable",
      "type": "function"
    },
    {
      "inputs": [
        {
          "internalType": "address",
          "name": "",
          "type": "address"
        }
      ],
      "name": "balance",
      "outputs": [
        {
          "internalType": "uint256",
          "name": "",
          "type": "uint256"
        }
      ],
      "stateMutability": "view",
      "type": "function"
    },
    {
      "inputs": [
        {
          "internalType": "address",
          "name": "addr",
          "type": "address"
        }
      ],
      "name": "balanceOf",
      "outputs": [
        {
          "internalType": "uint256",
          "name": "",
          "type": "uint256"
        }
      ],
      "stateMutability": "view",
      "type": "function"
    },
    {
      "inputs": [],
      "name": "balanceThisETH",
      "outputs": [
        {
          "internalType": "uint256",
          "name": "",
          "type": "uint256"
        }
      ],
      "stateMutability": "view",
      "type": "function"
    },
    {
      "inputs": [],
      "name": "buy",
      "outputs": [],
      "stateMutability": "payable",
      "type": "function"
    },
    {
      "inputs": [
        {
          "internalType": "uint256",
          "name": "amt",
          "type": "uint256"
        }
      ],
      "name": "getFreeToken",
      "outputs": [],
      "stateMutability": "nonpayable",
      "type": "function"
    },
    {
      "inputs": [
        {
          "internalType": "address",
          "name": "to",
          "type": "address"
        },
        {
          "internalType": "uint256",
          "name": "amount",
          "type": "uint256"
        }
      ],
      "name": "transfer",
      "outputs": [
        {
          "internalType": "bool",
          "name": "",
          "type": "bool"
        }
      ],
      "stateMutability": "nonpayable",
      "type": "function"
    },
    {
      "inputs": [
        {
          "internalType": "address",
          "name": "from",
          "type": "address"
        },
        {
          "internalType": "address",
          "name": "to",
          "type": "address"
        },
        {
          "internalType": "uint256",
          "name": "amount",
          "type": "uint256"
        }
      ],
      "name": "transferFrom",
      "outputs": [
        {
          "internalType": "bool",
          "name": "",
          "type": "bool"
        }
      ],
      "stateMutability": "nonpayable",
      "type": "function"
    },
    {
      "inputs": [
        {
          "internalType": "uint256",
          "name": "amount",
          "type": "uint256"
        }
      ],
      "name": "withdraw",
      "outputs": [],
      "stateMutability": "nonpayable",
      "type": "function"
    }
  ],
  "bytecode": "0x608060405234801561001057600080fd5b50610568806100206000396000f3fe6080604052600436106100915760003560e01c8063a6f2ae3a11610059578063a6f2ae3a14610196578063a9059cbb1461019e578063ca8a391e146101be578063dd62ed3e146101d1578063e3d670d71461020957600080fd5b8063095ea7b31461009657806323b872dd146100dd5780632e1a7d4d146101125780632e9c0d821461013257806370a0823114610152575b600080fd5b3480156100a257600080fd5b506100db6100b1366004610419565b3360009081526001602090815260408083206001600160a01b039590951683529390529190912055565b005b3480156100e957600080fd5b506100fd6100f8366004610443565b610236565b60405190151581526020015b60405180910390f35b34801561011e57600080fd5b506100db61012d36600461047f565b6102ff565b34801561013e57600080fd5b506100db61014d36600461047f565b610354565b34801561015e57600080fd5b5061018861016d366004610498565b6001600160a01b031660009081526020819052604090205490565b604051908152602001610109565b6100db61037b565b3480156101aa57600080fd5b506100fd6101b9366004610419565b6103a1565b3480156101ca57600080fd5b5047610188565b3480156101dd57600080fd5b506101886101ec3660046104ba565b600160209081526000928352604080842090915290825290205481565b34801561021557600080fd5b50610188610224366004610498565b60006020819052908152604090205481565b6001600160a01b03831660009081526001602090815260408083203384529091528120546000191461029b576001600160a01b038416600090815260016020908152604080832033845290915281208054849290610295908490610503565b90915550505b6001600160a01b038316600090815260208190526040812080548492906102c390849061051a565b90915550506001600160a01b038416600090815260208190526040812080548492906102f0908490610503565b90915550600195945050505050565b336000908152602081905260408120805483929061031e908490610503565b9091555050604051339082156108fc029083906000818181858888f19350505050158015610350573d6000803e3d6000fd5b5050565b336000908152602081905260408120805483929061037390849061051a565b909155505050565b336000908152602081905260408120805434929061039a90849061051a565b9091555050565b6001600160a01b0382166000908152602081905260408120805483919083906103cb90849061051a565b909155505033600090815260208190526040812080548492906103ef908490610503565b909155506001949350505050565b80356001600160a01b038116811461041457600080fd5b919050565b6000806040838503121561042c57600080fd5b610435836103fd565b946020939093013593505050565b60008060006060848603121561045857600080fd5b610461846103fd565b925061046f602085016103fd565b9150604084013590509250925092565b60006020828403121561049157600080fd5b5035919050565b6000602082840312156104aa57600080fd5b6104b3826103fd565b9392505050565b600080604083850312156104cd57600080fd5b6104d6836103fd565b91506104e4602084016103fd565b90509250929050565b634e487b7160e01b600052601160045260246000fd5b600082821015610515576105156104ed565b500390565b6000821982111561052d5761052d6104ed565b50019056fea264697066735822122060f5c9512ca903fb3b0a905b5618b7f1965c7b16e245a2831cebbc9f1eba868164736f6c634300080d0033",
  "linkReferences": {},
  "deployedLinkReferences": {}
}